{
  "contractName": "BattleShip",
  "abi": [
    {
      "constant": true,
      "inputs": [
        {
          "name": "",
          "type": "address"
        }
      ],
      "name": "playerNames",
      "outputs": [
        {
          "name": "",
          "type": "string"
        }
      ],
      "payable": false,
      "stateMutability": "view",
      "type": "function"
    },
    {
      "constant": true,
      "inputs": [],
      "name": "maxBoatLength",
      "outputs": [
        {
          "name": "",
          "type": "uint8"
        }
      ],
      "payable": false,
      "stateMutability": "view",
      "type": "function"
    },
    {
      "constant": true,
      "inputs": [
        {
          "name": "",
          "type": "bytes32"
        }
      ],
      "name": "playerNameExists",
      "outputs": [
        {
          "name": "",
          "type": "bool"
        }
      ],
      "payable": false,
      "stateMutability": "view",
      "type": "function"
    },
    {
      "constant": true,
      "inputs": [],
      "name": "minBoatLength",
      "outputs": [
        {
          "name": "",
          "type": "uint8"
        }
      ],
      "payable": false,
      "stateMutability": "view",
      "type": "function"
    },
    {
      "constant": true,
      "inputs": [
        {
          "name": "",
          "type": "bytes32"
        }
      ],
      "name": "games",
      "outputs": [
        {
          "name": "player1",
          "type": "address"
        },
        {
          "name": "player2",
          "type": "address"
        },
        {
          "name": "player1Name",
          "type": "string"
        },
        {
          "name": "player2Name",
          "type": "string"
        },
        {
          "name": "currentPlayer",
          "type": "address"
        },
        {
          "name": "winner",
          "type": "address"
        },
        {
          "name": "gameState",
          "type": "uint8"
        },
        {
          "name": "pot",
          "type": "uint256"
        },
        {
          "name": "availablePot",
          "type": "uint256"
        }
      ],
      "payable": false,
      "stateMutability": "view",
      "type": "function"
    },
    {
      "inputs": [],
      "payable": false,
      "stateMutability": "nonpayable",
      "type": "constructor"
    },
    {
      "payable": false,
      "stateMutability": "nonpayable",
      "type": "fallback"
    },
    {
      "anonymous": false,
      "inputs": [
        {
          "indexed": false,
          "name": "player",
          "type": "address"
        },
        {
          "indexed": false,
          "name": "name",
          "type": "string"
        }
      ],
      "name": "PlayerSetName",
      "type": "event"
    },
    {
      "anonymous": false,
      "inputs": [
        {
          "indexed": false,
          "name": "gameId",
          "type": "bytes32"
        },
        {
          "indexed": false,
          "name": "player1",
          "type": "address"
        },
        {
          "indexed": false,
          "name": "player1GoesFirst",
          "type": "bool"
        },
        {
          "indexed": false,
          "name": "pot",
          "type": "uint256"
        }
      ],
      "name": "GameInitialized",
      "type": "event"
    },
    {
      "anonymous": false,
      "inputs": [
        {
          "indexed": false,
          "name": "gameId",
          "type": "bytes32"
        },
        {
          "indexed": false,
          "name": "player2",
          "type": "address"
        }
      ],
      "name": "GameJoined",
      "type": "event"
    },
    {
      "anonymous": false,
      "inputs": [
        {
          "indexed": false,
          "name": "gameId",
          "type": "bytes32"
        },
        {
          "indexed": false,
          "name": "player",
          "type": "address"
        },
        {
          "indexed": false,
          "name": "startX",
          "type": "uint8"
        },
        {
          "indexed": false,
          "name": "endX",
          "type": "uint8"
        },
        {
          "indexed": false,
          "name": "startY",
          "type": "uint8"
        },
        {
          "indexed": false,
          "name": "endY",
          "type": "uint8"
        }
      ],
      "name": "ShipPlaced",
      "type": "event"
    },
    {
      "anonymous": false,
      "inputs": [
        {
          "indexed": false,
          "name": "gameId",
          "type": "bytes32"
        },
        {
          "indexed": false,
          "name": "newState",
          "type": "uint8"
        },
        {
          "indexed": false,
          "name": "newStateString",
          "type": "string"
        }
      ],
      "name": "StateChanged",
      "type": "event"
    },
    {
      "anonymous": false,
      "inputs": [
        {
          "indexed": false,
          "name": "gameId",
          "type": "bytes32"
        },
        {
          "indexed": false,
          "name": "currentPlayer",
          "type": "address"
        },
        {
          "indexed": false,
          "name": "x",
          "type": "uint8"
        },
        {
          "indexed": false,
          "name": "y",
          "type": "uint8"
        }
      ],
      "name": "MadeMove",
      "type": "event"
    },
    {
      "anonymous": false,
      "inputs": [
        {
          "indexed": false,
          "name": "gameId",
          "type": "bytes32"
        },
        {
          "indexed": false,
          "name": "currentPlayer",
          "type": "address"
        },
        {
          "indexed": false,
          "name": "x",
          "type": "uint8"
        },
        {
          "indexed": false,
          "name": "y",
          "type": "uint8"
        },
        {
          "indexed": false,
          "name": "pieceHit",
          "type": "int8"
        }
      ],
      "name": "HitBattleShip",
      "type": "event"
    },
    {
      "anonymous": false,
      "inputs": [
        {
          "indexed": false,
          "name": "gameId",
          "type": "bytes32"
        },
        {
          "indexed": false,
          "name": "player",
          "type": "address"
        }
      ],
      "name": "WonChallenged",
      "type": "event"
    },
    {
      "anonymous": false,
      "inputs": [
        {
          "indexed": false,
          "name": "gameId",
          "type": "bytes32"
        },
        {
          "indexed": false,
          "name": "winner",
          "type": "address"
        }
      ],
      "name": "GameEnded",
      "type": "event"
    },
    {
      "anonymous": false,
      "inputs": [
        {
          "indexed": false,
          "name": "gameId",
          "type": "bytes32"
        },
        {
          "indexed": false,
          "name": "player",
          "type": "address"
        }
      ],
      "name": "WinningsWithdrawn",
      "type": "event"
    },
    {
      "anonymous": false,
      "inputs": [
        {
          "indexed": false,
          "name": "gameId",
          "type": "bytes32"
        },
        {
          "indexed": false,
          "name": "player",
          "type": "address"
        },
        {
          "indexed": false,
          "name": "reason",
          "type": "string"
        }
      ],
      "name": "WithdrawFailed",
      "type": "event"
    },
    {
      "anonymous": false,
      "inputs": [
        {
          "indexed": false,
          "name": "gameId",
          "type": "bytes32"
        },
        {
          "indexed": false,
          "name": "currentState",
          "type": "uint8"
        },
        {
          "indexed": false,
          "name": "comparingState",
          "type": "uint8"
        },
        {
          "indexed": false,
          "name": "equal",
          "type": "bool"
        }
      ],
      "name": "IsStateCalled",
      "type": "event"
    },
    {
      "anonymous": false,
      "inputs": [
        {
          "indexed": false,
          "name": "gameId",
          "type": "bytes32"
        },
        {
          "indexed": false,
          "name": "player",
          "type": "address"
        }
      ],
      "name": "IsPlayerCalled",
      "type": "event"
    },
    {
      "anonymous": false,
      "inputs": [
        {
          "indexed": false,
          "name": "gameId",
          "type": "bytes32"
        },
        {
          "indexed": false,
          "name": "state",
          "type": "uint8"
        }
      ],
      "name": "LogCurrentState",
      "type": "event"
    },
    {
      "constant": false,
      "inputs": [
        {
          "name": "source",
          "type": "string"
        }
      ],
      "name": "stringToBytes32",
      "outputs": [
        {
          "name": "result",
          "type": "bytes32"
        }
      ],
      "payable": false,
      "stateMutability": "nonpayable",
      "type": "function"
    },
    {
      "constant": false,
      "inputs": [
        {
          "name": "name",
          "type": "string"
        }
      ],
      "name": "setName",
      "outputs": [],
      "payable": false,
      "stateMutability": "nonpayable",
      "type": "function"
    },
    {
      "constant": true,
      "inputs": [
        {
          "name": "gameId",
          "type": "bytes32"
        }
      ],
      "name": "findPot",
      "outputs": [
        {
          "name": "",
          "type": "uint256"
        }
      ],
      "payable": false,
      "stateMutability": "view",
      "type": "function"
    },
    {
      "constant": false,
      "inputs": [
        {
          "name": "goFirst",
          "type": "bool"
        }
      ],
      "name": "newGame",
      "outputs": [
        {
          "name": "",
          "type": "bytes32"
        }
      ],
      "payable": true,
      "stateMutability": "payable",
      "type": "function"
    },
    {
      "constant": false,
      "inputs": [
        {
          "name": "gameId",
          "type": "bytes32"
        }
      ],
      "name": "joinGame",
      "outputs": [],
      "payable": true,
      "stateMutability": "payable",
      "type": "function"
    },
    {
      "constant": true,
      "inputs": [
        {
          "name": "gameId",
          "type": "bytes32"
        }
      ],
      "name": "showBoard",
      "outputs": [
        {
          "name": "board",
          "type": "int8[10][10]"
        }
      ],
      "payable": false,
      "stateMutability": "view",
      "type": "function"
    },
    {
      "constant": true,
      "inputs": [
        {
          "name": "gameId",
          "type": "bytes32"
        }
      ],
      "name": "showOtherPlayerBoard",
      "outputs": [
        {
          "name": "",
          "type": "int8[10][10]"
        }
      ],
      "payable": false,
      "stateMutability": "view",
      "type": "function"
    },
    {
      "constant": false,
      "inputs": [
        {
          "name": "gameId",
          "type": "bytes32"
        },
        {
          "name": "startX",
          "type": "uint8"
        },
        {
          "name": "endX",
          "type": "uint8"
        },
        {
          "name": "startY",
          "type": "uint8"
        },
        {
          "name": "endY",
          "type": "uint8"
        }
      ],
      "name": "placeShip",
      "outputs": [],
      "payable": false,
      "stateMutability": "nonpayable",
      "type": "function"
    },
    {
      "constant": false,
      "inputs": [
        {
          "name": "gameId",
          "type": "bytes32"
        }
      ],
      "name": "finishPlacing",
      "outputs": [],
      "payable": false,
      "stateMutability": "nonpayable",
      "type": "function"
    },
    {
      "constant": false,
      "inputs": [
        {
          "name": "gameId",
          "type": "bytes32"
        },
        {
          "name": "x",
          "type": "uint8"
        },
        {
          "name": "y",
          "type": "uint8"
        }
      ],
      "name": "makeMove",
      "outputs": [],
      "payable": false,
      "stateMutability": "nonpayable",
      "type": "function"
    },
    {
      "constant": false,
      "inputs": [
        {
          "name": "gameId",
          "type": "bytes32"
        }
      ],
      "name": "sayWon",
      "outputs": [],
      "payable": false,
      "stateMutability": "nonpayable",
      "type": "function"
    },
    {
      "constant": false,
      "inputs": [
        {
          "name": "gameId",
          "type": "bytes32"
        }
      ],
      "name": "withdraw",
      "outputs": [],
      "payable": false,
      "stateMutability": "nonpayable",
      "type": "function"
    }
  ],
  "bytecode": "0x608060405234801561001057600080fd5b506005600460006101000a81548160ff021916908360ff1602179055506002600460016101000a81548160ff021916908360ff16021790555061456e806100586000396000f3006080604052600436106100f1576000357c0100000000000000000000000000000000000000000000000000000000900463ffffffff1680632b170aac146101035780633ff332851461014157806343b978b31461018657806347825aa1146102425780634e206c8a146102d25780636ff41204146103625780638e19899e146103ad57806399e8c427146103de578063a1ab221614610443578063b8df519b14610474578063bf474766146104bd578063c47f0027146104e1578063cfb519281461054a578063dadc21c3146105cf578063e3388c0a14610600578063e4214c5014610631578063f579f88214610662575b3480156100fd57600080fd5b50600080fd5b610123600480360381019080803515159060200190929190505050610867565b60405180826000191660001916815260200191505060405180910390f35b34801561014d57600080fd5b506101706004803603810190808035600019169060200190929190505050610e7e565b6040518082815260200191505060405180910390f35b34801561019257600080fd5b506101c7600480360381019080803573ffffffffffffffffffffffffffffffffffffffff169060200190929190505050610ea6565b6040518080602001828103825283818151815260200191508051906020019080838360005b838110156102075780820151818401526020810190506101ec565b50505050905090810190601f1680156102345780820380516001836020036101000a031916815260200191505b509250505060405180910390f35b34801561024e57600080fd5b506102716004803603810190808035600019169060200190929190505050610f56565b6040518082600a6000925b818410156102c25782846020020151600a60200280838360005b838110156102b1578082015181840152602081019050610296565b50505050905001926001019261027c565b9250505091505060405180910390f35b3480156102de57600080fd5b5061030160048036038101908080356000191690602001909291905050506113fb565b6040518082600a6000925b818410156103525782846020020151600a60200280838360005b83811015610341578082015181840152602081019050610326565b50505050905001926001019261030c565b9250505091505060405180910390f35b34801561036e57600080fd5b506103ab6004803603810190808035600019169060200190929190803560ff169060200190929190803560ff169060200190929190505050611658565b005b3480156103b957600080fd5b506103dc6004803603810190808035600019169060200190929190505050611e2f565b005b3480156103ea57600080fd5b506104416004803603810190808035600019169060200190929190803560ff169060200190929190803560ff169060200190929190803560ff169060200190929190803560ff169060200190929190505050612235565b005b34801561044f57600080fd5b50610458612a5a565b604051808260ff1660ff16815260200191505060405180910390f35b34801561048057600080fd5b506104a36004803603810190808035600019169060200190929190505050612a6d565b604051808215151515815260200191505060405180910390f35b6104df6004803603810190808035600019169060200190929190505050612a8d565b005b3480156104ed57600080fd5b50610548600480360381019080803590602001908201803590602001908080601f01602080910402602001604051908101604052809392919081815260200183838082843782019150505050505091929192905050506130cd565b005b34801561055657600080fd5b506105b1600480360381019080803590602001908201803590602001908080601f016020809104026020016040519081016040528093929190818152602001838380828437820191505050505050919291929050505061327a565b60405180826000191660001916815260200191505060405180910390f35b3480156105db57600080fd5b506105fe6004803603810190808035600019169060200190929190505050613288565b005b34801561060c57600080fd5b506106156137d4565b604051808260ff1660ff16815260200191505060405180910390f35b34801561063d57600080fd5b5061066060048036038101908080356000191690602001909291905050506137e7565b005b34801561066e57600080fd5b506106916004803603810190808035600019169060200190929190505050613ddf565b604051808a73ffffffffffffffffffffffffffffffffffffffff1673ffffffffffffffffffffffffffffffffffffffff1681526020018973ffffffffffffffffffffffffffffffffffffffff1673ffffffffffffffffffffffffffffffffffffffff16815260200180602001806020018873ffffffffffffffffffffffffffffffffffffffff1673ffffffffffffffffffffffffffffffffffffffff1681526020018773ffffffffffffffffffffffffffffffffffffffff1673ffffffffffffffffffffffffffffffffffffffff16815260200186600381111561077157fe5b60ff16815260200185815260200184815260200183810383528a818151815260200191508051906020019080838360005b838110156107bd5780820151818401526020810190506107a2565b50505050905090810190601f1680156107ea5780820380516001836020036101000a031916815260200191505b50838103825289818151815260200191508051906020019080838360005b83811015610823578082015181840152602081019050610808565b50505050905090810190601f1680156108505780820380516001836020036101000a031916815260200191505b509b50505050505050505050505060405180910390f35b6000806000600102600019166109526000803373ffffffffffffffffffffffffffffffffffffffff1673ffffffffffffffffffffffffffffffffffffffff1681526020019081526020016000208054600181600116156101000203166002900480601f0160208091040260200160405190810160405280929190818152602001828054600181600116156101000203166002900480156109485780601f1061091d57610100808354040283529160200191610948565b820191906000526020600020905b81548152906001019060200180831161092b57829003601f168201915b505050505061327a565b60001916141515610e785760003411151561096c57600080fd5b3343604051808373ffffffffffffffffffffffffffffffffffffffff1673ffffffffffffffffffffffffffffffffffffffff166c010000000000000000000000000281526014018281526020019250505060405180910390209050600360003373ffffffffffffffffffffffffffffffffffffffff1673ffffffffffffffffffffffffffffffffffffffff168152602001908152602001600020819080600181540180825580915050906001820390600052602060002001600090919290919091509060001916905550610120604051908101604052803373ffffffffffffffffffffffffffffffffffffffff168152602001600073ffffffffffffffffffffffffffffffffffffffff1681526020016000803373ffffffffffffffffffffffffffffffffffffffff1673ffffffffffffffffffffffffffffffffffffffff1681526020019081526020016000208054600181600116156101000203166002900480601f016020809104026020016040519081016040528092919081815260200182805460018160011615610100020316600290048015610b4e5780601f10610b2357610100808354040283529160200191610b4e565b820191906000526020600020905b815481529060010190602001808311610b3157829003601f168201915b5050505050815260200160206040519081016040528060008152508152602001600073ffffffffffffffffffffffffffffffffffffffff168152602001600073ffffffffffffffffffffffffffffffffffffffff16815260200160006003811115610bb557fe5b81526020016002340281526020016002340281525060026000836000191660001916815260200190815260200160002060008201518160000160006101000a81548173ffffffffffffffffffffffffffffffffffffffff021916908373ffffffffffffffffffffffffffffffffffffffff16021790555060208201518160010160006101000a81548173ffffffffffffffffffffffffffffffffffffffff021916908373ffffffffffffffffffffffffffffffffffffffff1602179055506040820151816002019080519060200190610c8f929190614343565b506060820151816003019080519060200190610cac929190614343565b5060808201518160040160006101000a81548173ffffffffffffffffffffffffffffffffffffffff021916908373ffffffffffffffffffffffffffffffffffffffff16021790555060a08201518160050160006101000a81548173ffffffffffffffffffffffffffffffffffffffff021916908373ffffffffffffffffffffffffffffffffffffffff16021790555060c08201518160050160146101000a81548160ff02191690836003811115610d5f57fe5b021790555060e0820151816006015561010082015181600701559050508215610de0573360026000836000191660001916815260200190815260200160002060040160006101000a81548173ffffffffffffffffffffffffffffffffffffffff021916908373ffffffffffffffffffffffffffffffffffffffff1602179055505b7f5d88f69cc228a862fcd5b72b08f2625f04b37eb248f30b8e63f72b77d022445a813385600234026040518085600019166000191681526020018473ffffffffffffffffffffffffffffffffffffffff1673ffffffffffffffffffffffffffffffffffffffff1681526020018315151515815260200182815260200194505050505060405180910390a1610e748133613fea565b8091505b50919050565b6000600260008360001916600019168152602001908152602001600020600601549050919050565b60006020528060005260406000206000915090508054600181600116156101000203166002900480601f016020809104026020016040519081016040528092919081815260200182805460018160011615610100020316600290048015610f4e5780601f10610f2357610100808354040283529160200191610f4e565b820191906000526020600020905b815481529060010190602001808311610f3157829003601f168201915b505050505081565b610f5e6143c3565b600080600080857f30c126ddfd78b554590c8e0062ead3303c3d42fee51c3546f36f6daab83bc0a781336040518083600019166000191681526020018273ffffffffffffffffffffffffffffffffffffffff1673ffffffffffffffffffffffffffffffffffffffff1681526020019250505060405180910390a160026000826000191660001916815260200190815260200160002060000160009054906101000a900473ffffffffffffffffffffffffffffffffffffffff1673ffffffffffffffffffffffffffffffffffffffff163373ffffffffffffffffffffffffffffffffffffffff1614806110b9575060026000826000191660001916815260200190815260200160002060010160009054906101000a900473ffffffffffffffffffffffffffffffffffffffff1673ffffffffffffffffffffffffffffffffffffffff163373ffffffffffffffffffffffffffffffffffffffff16145b156113f157600260038111156110cb57fe5b60026000896000191660001916815260200190815260200160002060050160149054906101000a900460ff16600381111561110257fe5b148061114e575060038081111561111557fe5b60026000896000191660001916815260200190815260200160002060050160149054906101000a900460ff16600381111561114c57fe5b145b151561115957600080fd5b6111638733614204565b945060026000886000191660001916815260200190815260200160002060080160008673ffffffffffffffffffffffffffffffffffffffff1673ffffffffffffffffffffffffffffffffffffffff1681526020019081526020016000209350600092505b600a8360ff16101561135557600091505b600a821015611348576000848460ff16600a811015156111f457fe5b0183600a8110151561120257fe5b602091828204019190069054906101000a900460000b60000b13801561127357506001600460009054906101000a900460ff160160ff16848460ff16600a8110151561124a57fe5b0183600a8110151561125857fe5b602091828204019190069054906101000a900460000b60000b125b156112c257600060058460ff16600a8110151561128c57fe5b0183600a8110151561129a57fe5b602091828204019190066101000a81548160ff021916908360000b60ff16021790555061133b565b838360ff16600a811015156112d357fe5b0182600a811015156112e157fe5b602091828204019190069054906101000a900460000b60058460ff16600a8110151561130957fe5b0183600a8110151561131757fe5b602091828204019190066101000a81548160ff021916908360000b60ff1602179055505b81806001019250506111d8565b82806001019350506111c7565b6005600a80602002604051908101604052809291906000905b828210156113ea57838201600a806020026040519081016040528092919082600a80156113d6576020028201916000905b82829054906101000a900460000b60000b8152602001906001019060208260000104928301926001038202915080841161139f5790505b50505050508152602001906001019061136e565b5050505095505b5050505050919050565b6114036143c3565b817f30c126ddfd78b554590c8e0062ead3303c3d42fee51c3546f36f6daab83bc0a781336040518083600019166000191681526020018273ffffffffffffffffffffffffffffffffffffffff1673ffffffffffffffffffffffffffffffffffffffff1681526020019250505060405180910390a160026000826000191660001916815260200190815260200160002060000160009054906101000a900473ffffffffffffffffffffffffffffffffffffffff1673ffffffffffffffffffffffffffffffffffffffff163373ffffffffffffffffffffffffffffffffffffffff161480611558575060026000826000191660001916815260200190815260200160002060010160009054906101000a900473ffffffffffffffffffffffffffffffffffffffff1673ffffffffffffffffffffffffffffffffffffffff163373ffffffffffffffffffffffffffffffffffffffff16145b156116525760026000846000191660001916815260200190815260200160002060080160003373ffffffffffffffffffffffffffffffffffffffff1673ffffffffffffffffffffffffffffffffffffffff168152602001908152602001600020600a80602002604051908101604052809291906000905b8282101561164b57838201600a806020026040519081016040528092919082600a8015611637576020028201916000905b82829054906101000a900460000b60000b815260200190600101906020826000010492830192600103820291508084116116005790505b5050505050815260200190600101906115cf565b5050505091505b50919050565b60008360027fb50b8c7887cd42a9ec052cf6f08c93c0987703edc4bb85236958ac3effb6aacd828260026000866000191660001916815260200190815260200160002060050160149054906101000a900460ff1660026000876000191660001916815260200190815260200160002060050160149054906101000a900460ff1660038111156116e357fe5b8560038111156116ef57fe5b1460405180856000191660001916815260200184600381111561170e57fe5b60ff16815260200183600381111561172257fe5b60ff1681526020018215151515815260200194505050505060405180910390a160026000836000191660001916815260200190815260200160002060050160149054906101000a900460ff16600381111561177957fe5b81600381111561178557fe5b1415611e27578560026000826000191660001916815260200190815260200160002060040160009054906101000a900473ffffffffffffffffffffffffffffffffffffffff1673ffffffffffffffffffffffffffffffffffffffff163373ffffffffffffffffffffffffffffffffffffffff161415611e25576118088733614204565b9350600060026000896000191660001916815260200190815260200160002060080160008673ffffffffffffffffffffffffffffffffffffffff1673ffffffffffffffffffffffffffffffffffffffff1681526020019081526020016000208760ff16600a8110151561187757fe5b018660ff16600a8110151561188857fe5b602091828204019190069054906101000a900460000b60000b121515156118ae57600080fd5b600060026000896000191660001916815260200190815260200160002060080160008673ffffffffffffffffffffffffffffffffffffffff1673ffffffffffffffffffffffffffffffffffffffff1681526020019081526020016000208760ff16600a8110151561191b57fe5b018660ff16600a8110151561192c57fe5b602091828204019190069054906101000a900460000b60000b1380156119fa57506001600460009054906101000a900460ff160160ff1660026000896000191660001916815260200190815260200160002060080160008673ffffffffffffffffffffffffffffffffffffffff1673ffffffffffffffffffffffffffffffffffffffff1681526020019081526020016000208760ff16600a811015156119ce57fe5b018660ff16600a811015156119df57fe5b602091828204019190069054906101000a900460000b60000b125b15611c85577f27ebdceca682d5f1c1fcaf57d99ed41d9e7940a7f5453e4f87dd387844502e6787338888600260008d6000191660001916815260200190815260200160002060080160008a73ffffffffffffffffffffffffffffffffffffffff1673ffffffffffffffffffffffffffffffffffffffff1681526020019081526020016000208b60ff16600a81101515611a8f57fe5b018a60ff16600a81101515611aa057fe5b602091828204019190069054906101000a900460000b6040518086600019166000191681526020018573ffffffffffffffffffffffffffffffffffffffff1673ffffffffffffffffffffffffffffffffffffffff1681526020018460ff1660ff1681526020018360ff1660ff1681526020018260000b60000b81526020019550505050505060405180910390a160026000886000191660001916815260200190815260200160002060080160008573ffffffffffffffffffffffffffffffffffffffff1673ffffffffffffffffffffffffffffffffffffffff1681526020019081526020016000208660ff16600a81101515611b9857fe5b018560ff16600a81101515611ba957fe5b602091828204019190069054906101000a900460000b7fffffffffffffffffffffffffffffffffffffffffffffffffffffffffffffffff0260026000896000191660001916815260200190815260200160002060080160008673ffffffffffffffffffffffffffffffffffffffff1673ffffffffffffffffffffffffffffffffffffffff1681526020019081526020016000208760ff16600a81101515611c4c57fe5b018660ff16600a81101515611c5d57fe5b602091828204019190066101000a81548160ff021916908360000b60ff160217905550611d38565b6001600460009054906101000a900460ff160160026000896000191660001916815260200190815260200160002060080160008673ffffffffffffffffffffffffffffffffffffffff1673ffffffffffffffffffffffffffffffffffffffff1681526020019081526020016000208760ff16600a81101515611d0357fe5b018660ff16600a81101515611d1457fe5b602091828204019190066101000a81548160ff021916908360000b60ff1602179055505b8360026000896000191660001916815260200190815260200160002060040160006101000a81548173ffffffffffffffffffffffffffffffffffffffff021916908373ffffffffffffffffffffffffffffffffffffffff1602179055507f4b1ac43a65a3fc254af1822cbe4486241d145958d838bab95001aedfd45b09af873388886040518085600019166000191681526020018473ffffffffffffffffffffffffffffffffffffffff1673ffffffffffffffffffffffffffffffffffffffff1681526020018360ff1660ff1681526020018260ff1660ff16815260200194505050505060405180910390a15b505b505050505050565b6000600380811115611e3d57fe5b60026000846000191660001916815260200190815260200160002060050160149054906101000a900460ff166003811115611e7457fe5b141515611f2c577fd8ba5a086eb699dea1c1fac164bb49dd3e5e16d2d6641b9bb54d36431e3c56c382336040518083600019166000191681526020018273ffffffffffffffffffffffffffffffffffffffff1673ffffffffffffffffffffffffffffffffffffffff16815260200180602001828103825260178152602001807f546869732067616d652069736e74206f76657220796574000000000000000000815250602001935050505060405180910390a1612231565b600260008360001916600019168152602001908152602001600020600701549050600081111561215d5760026000836000191660001916815260200190815260200160002060050160009054906101000a900473ffffffffffffffffffffffffffffffffffffffff1673ffffffffffffffffffffffffffffffffffffffff163373ffffffffffffffffffffffffffffffffffffffff1614156120ab576000600260008460001916600019168152602001908152602001600020600701819055503373ffffffffffffffffffffffffffffffffffffffff166108fc829081150290604051600060405180830381858888f19350505050158015612032573d6000803e3d6000fd5b507f255898c86cfbf62a32125aa6ad84b1687328b28c83569cd720d2d89453337f1a82336040518083600019166000191681526020018273ffffffffffffffffffffffffffffffffffffffff1673ffffffffffffffffffffffffffffffffffffffff1681526020019250505060405180910390a1612158565b7fd8ba5a086eb699dea1c1fac164bb49dd3e5e16d2d6641b9bb54d36431e3c56c382336040518083600019166000191681526020018273ffffffffffffffffffffffffffffffffffffffff1673ffffffffffffffffffffffffffffffffffffffff168152602001806020018281038252601e8152602001807f5468697320706c61796572206861736e7420776f6e207468652067616d650000815250602001935050505060405180910390a15b612230565b7fd8ba5a086eb699dea1c1fac164bb49dd3e5e16d2d6641b9bb54d36431e3c56c382336040518083600019166000191681526020018273ffffffffffffffffffffffffffffffffffffffff1673ffffffffffffffffffffffffffffffffffffffff168152602001806020018281038252602b8152602001807f4e6f206d6f72652066756e647320696e2074686520636f6e747261637420666f81526020017f7220746869732067616d65000000000000000000000000000000000000000000815250604001935050505060405180910390a15b5b5050565b6000806000877f30c126ddfd78b554590c8e0062ead3303c3d42fee51c3546f36f6daab83bc0a781336040518083600019166000191681526020018273ffffffffffffffffffffffffffffffffffffffff1673ffffffffffffffffffffffffffffffffffffffff1681526020019250505060405180910390a160026000826000191660001916815260200190815260200160002060000160009054906101000a900473ffffffffffffffffffffffffffffffffffffffff1673ffffffffffffffffffffffffffffffffffffffff163373ffffffffffffffffffffffffffffffffffffffff16148061238f575060026000826000191660001916815260200190815260200160002060010160009054906101000a900473ffffffffffffffffffffffffffffffffffffffff1673ffffffffffffffffffffffffffffffffffffffff163373ffffffffffffffffffffffffffffffffffffffff16145b15612a4f578860017fb50b8c7887cd42a9ec052cf6f08c93c0987703edc4bb85236958ac3effb6aacd828260026000866000191660001916815260200190815260200160002060050160149054906101000a900460ff1660026000876000191660001916815260200190815260200160002060050160149054906101000a900460ff16600381111561241d57fe5b85600381111561242957fe5b1460405180856000191660001916815260200184600381111561244857fe5b60ff16815260200183600381111561245c57fe5b60ff1681526020018215151515815260200194505050505060405180910390a160026000836000191660001916815260200190815260200160002060050160149054906101000a900460ff1660038111156124b357fe5b8160038111156124bf57fe5b1415612a4c578860ff168a60ff1614806124de57508660ff168860ff16145b15156124e957600080fd5b8860ff168a60ff16108061250257508660ff168860ff16105b151561250d57600080fd5b600a8a60ff16108015612524575060008a60ff1610155b80156125335750600a8960ff16105b8015612543575060008960ff1610155b80156125525750600a8860ff16105b8015612562575060008860ff1610155b80156125715750600a8760ff16105b8015612581575060008760ff1610155b151561258c57600080fd5b8995505b8860ff168660ff1611151561266f578794505b8660ff168560ff16111515612662576000600260008d6000191660001916815260200190815260200160002060080160003373ffffffffffffffffffffffffffffffffffffffff1673ffffffffffffffffffffffffffffffffffffffff1681526020019081526020016000208760ff16600a8110151561261f57fe5b018660ff16600a8110151561263057fe5b602091828204019190069054906101000a900460000b60000b14151561265557600080fd5b84806001019550506125a3565b8580600101965050612590565b600193508860ff168a60ff16141561269b576126928760ff168960ff1603614306565b840193506126c0565b8660ff168860ff1614156126bf576126ba8960ff168b60ff1603614306565b840193505b5b600460009054906101000a900460ff1660ff168460ff16111580156126fa5750600460019054906101000a900460ff1660ff168460ff1610155b151561270557600080fd5b600260008c6000191660001916815260200190815260200160002060090160003373ffffffffffffffffffffffffffffffffffffffff1673ffffffffffffffffffffffffffffffffffffffff168152602001908152602001600020600460019054906101000a900460ff16850360ff1660048110151561278157fe5b602091828204019190069054906101000a900460ff161515156127a357600080fd5b6001600260008d6000191660001916815260200190815260200160002060090160003373ffffffffffffffffffffffffffffffffffffffff1673ffffffffffffffffffffffffffffffffffffffff168152602001908152602001600020600460019054906101000a900460ff16860360ff1660048110151561282157fe5b602091828204019190066101000a81548160ff0219169083151502179055507ffca94935b0cf28455af1a24850a248bbabdcde82ce731f3bf827a499ddb3b5038b600260008e6000191660001916815260200190815260200160002060050160149054906101000a900460ff166040518083600019166000191681526020018260038111156128ac57fe5b60ff1681526020019250505060405180910390a18995505b8860ff168660ff161115156129a0578794505b8660ff168560ff161115156129935783600260008d6000191660001916815260200190815260200160002060080160003373ffffffffffffffffffffffffffffffffffffffff1673ffffffffffffffffffffffffffffffffffffffff1681526020019081526020016000208760ff16600a8110151561295257fe5b018660ff16600a8110151561296357fe5b602091828204019190066101000a81548160ff021916908360000b60ff16021790555084806001019550506128d7565b85806001019650506128c4565b7f25ebc185311f71ba700ebfc50d7596b6009430be2198080fe828d755c32e16028b338c8c8c8c6040518087600019166000191681526020018673ffffffffffffffffffffffffffffffffffffffff1673ffffffffffffffffffffffffffffffffffffffff1681526020018560ff1660ff1681526020018460ff1660ff1681526020018360ff1660ff1681526020018260ff1660ff168152602001965050505050505060405180910390a15b50505b505050505050505050565b600460009054906101000a900460ff1681565b60016020528060005260406000206000915054906101000a900460ff1681565b600060010260001916612b756000803373ffffffffffffffffffffffffffffffffffffffff1673ffffffffffffffffffffffffffffffffffffffff1681526020019081526020016000208054600181600116156101000203166002900480601f016020809104026020016040519081016040528092919081815260200182805460018160011615610100020316600290048015612b6b5780601f10612b4057610100808354040283529160200191612b6b565b820191906000526020600020905b815481529060010190602001808311612b4e57829003601f168201915b505050505061327a565b600019161415156130ca578060007fb50b8c7887cd42a9ec052cf6f08c93c0987703edc4bb85236958ac3effb6aacd828260026000866000191660001916815260200190815260200160002060050160149054906101000a900460ff1660026000876000191660001916815260200190815260200160002060050160149054906101000a900460ff166003811115612c0957fe5b856003811115612c1557fe5b14604051808560001916600019168152602001846003811115612c3457fe5b60ff168152602001836003811115612c4857fe5b60ff1681526020018215151515815260200194505050505060405180910390a160026000836000191660001916815260200190815260200160002060050160149054906101000a900460ff166003811115612c9f57fe5b816003811115612cab57fe5b14156130c757600073ffffffffffffffffffffffffffffffffffffffff1660026000856000191660001916815260200190815260200160002060010160009054906101000a900473ffffffffffffffffffffffffffffffffffffffff1673ffffffffffffffffffffffffffffffffffffffff16141515612d2a57600080fd5b6002806000856000191660001916815260200190815260200160002060060154811515612d5357fe5b0434141515612d6157600080fd5b3360026000856000191660001916815260200190815260200160002060010160006101000a81548173ffffffffffffffffffffffffffffffffffffffff021916908373ffffffffffffffffffffffffffffffffffffffff1602179055506000803373ffffffffffffffffffffffffffffffffffffffff1673ffffffffffffffffffffffffffffffffffffffff1681526020019081526020016000206002600085600019166000191681526020019081526020016000206003019080546001816001161561010002031660029004612e399291906143f2565b50600360003373ffffffffffffffffffffffffffffffffffffffff1673ffffffffffffffffffffffffffffffffffffffff168152602001908152602001600020839080600181540180825580915050906001820390600052602060002001600090919290919091509060001916905550600073ffffffffffffffffffffffffffffffffffffffff1660026000856000191660001916815260200190815260200160002060040160009054906101000a900473ffffffffffffffffffffffffffffffffffffffff1673ffffffffffffffffffffffffffffffffffffffff161415612f7a573360026000856000191660001916815260200190815260200160002060040160006101000a81548173ffffffffffffffffffffffffffffffffffffffff021916908373ffffffffffffffffffffffffffffffffffffffff1602179055505b612f848333613fea565b7f719256502a190a7b4efbca7f56497055f1dccc51e2dca31d166dd41353fa21c283336040518083600019166000191681526020018273ffffffffffffffffffffffffffffffffffffffff1673ffffffffffffffffffffffffffffffffffffffff1681526020019250505060405180910390a1600160026000856000191660001916815260200190815260200160002060050160146101000a81548160ff0219169083600381111561303257fe5b02179055507fb4c24ba44adc7dd6a2c224259edcf26e548b1048e4b8193ee5c753d4feb33bb183600160405180836000191660001916815260200182600381111561307957fe5b60ff16815260200180602001828103825260098152602001807f53657474696e6755700000000000000000000000000000000000000000000000815250602001935050505060405180910390a15b50505b50565b6000601e8251111515156130e057600080fd5b6130e98261327a565b905060016000826000191660001916815260200190815260200160002060009054906101000a900460ff1615151561312057600080fd5b816000803373ffffffffffffffffffffffffffffffffffffffff1673ffffffffffffffffffffffffffffffffffffffff1681526020019081526020016000209080519060200190613172929190614479565b506001806000836000191660001916815260200190815260200160002060006101000a81548160ff0219169083151502179055507f8331bc8921688bfe640115624ac39a637c5057e7741189a77ee8c79829563acd3383604051808373ffffffffffffffffffffffffffffffffffffffff1673ffffffffffffffffffffffffffffffffffffffff16815260200180602001828103825283818151815260200191508051906020019080838360005b8381101561323b578082015181840152602081019050613220565b50505050905090810190601f1680156132685780820380516001836020036101000a031916815260200191505b50935050505060405180910390a15050565b600060208201519050919050565b600080827f30c126ddfd78b554590c8e0062ead3303c3d42fee51c3546f36f6daab83bc0a781336040518083600019166000191681526020018273ffffffffffffffffffffffffffffffffffffffff1673ffffffffffffffffffffffffffffffffffffffff1681526020019250505060405180910390a160026000826000191660001916815260200190815260200160002060000160009054906101000a900473ffffffffffffffffffffffffffffffffffffffff1673ffffffffffffffffffffffffffffffffffffffff163373ffffffffffffffffffffffffffffffffffffffff1614806133e0575060026000826000191660001916815260200190815260200160002060010160009054906101000a900473ffffffffffffffffffffffffffffffffffffffff1673ffffffffffffffffffffffffffffffffffffffff163373ffffffffffffffffffffffffffffffffffffffff16145b156137ce578360017fb50b8c7887cd42a9ec052cf6f08c93c0987703edc4bb85236958ac3effb6aacd828260026000866000191660001916815260200190815260200160002060050160149054906101000a900460ff1660026000876000191660001916815260200190815260200160002060050160149054906101000a900460ff16600381111561346e57fe5b85600381111561347a57fe5b1460405180856000191660001916815260200184600381111561349957fe5b60ff1681526020018360038111156134ad57fe5b60ff1681526020018215151515815260200194505050505060405180910390a160026000836000191660001916815260200190815260200160002060050160149054906101000a900460ff16600381111561350457fe5b81600381111561351057fe5b14156137cb5760019450600093505b600460019054906101000a900460ff16600460009054906101000a900460ff160360ff168460ff161115156136f057600260008760001916600019168152602001908152602001600020600901600060026000896000191660001916815260200190815260200160002060000160009054906101000a900473ffffffffffffffffffffffffffffffffffffffff1673ffffffffffffffffffffffffffffffffffffffff1673ffffffffffffffffffffffffffffffffffffffff1681526020019081526020016000208460ff166004811015156135f757fe5b602091828204019190069054906101000a900460ff1615806136d55750600260008760001916600019168152602001908152602001600020600901600060026000896000191660001916815260200190815260200160002060010160009054906101000a900473ffffffffffffffffffffffffffffffffffffffff1673ffffffffffffffffffffffffffffffffffffffff1673ffffffffffffffffffffffffffffffffffffffff1681526020019081526020016000208460ff166004811015156136bd57fe5b602091828204019190069054906101000a900460ff16155b156136e357600094506136f0565b838060010194505061351f565b8415156136fc57600080fd5b6002806000886000191660001916815260200190815260200160002060050160146101000a81548160ff0219169083600381111561373657fe5b02179055507fb4c24ba44adc7dd6a2c224259edcf26e548b1048e4b8193ee5c753d4feb33bb186600260405180836000191660001916815260200182600381111561377d57fe5b60ff16815260200180602001828103825260078152602001807f506c6179696e6700000000000000000000000000000000000000000000000000815250602001935050505060405180910390a15b50505b50505050565b600460019054906101000a900460ff1681565b600080600080600080867f30c126ddfd78b554590c8e0062ead3303c3d42fee51c3546f36f6daab83bc0a781336040518083600019166000191681526020018273ffffffffffffffffffffffffffffffffffffffff1673ffffffffffffffffffffffffffffffffffffffff1681526020019250505060405180910390a160026000826000191660001916815260200190815260200160002060000160009054906101000a900473ffffffffffffffffffffffffffffffffffffffff1673ffffffffffffffffffffffffffffffffffffffff163373ffffffffffffffffffffffffffffffffffffffff161480613945575060026000826000191660001916815260200190815260200160002060010160009054906101000a900473ffffffffffffffffffffffffffffffffffffffff1673ffffffffffffffffffffffffffffffffffffffff163373ffffffffffffffffffffffffffffffffffffffff16145b15613dd5578760027fb50b8c7887cd42a9ec052cf6f08c93c0987703edc4bb85236958ac3effb6aacd828260026000866000191660001916815260200190815260200160002060050160149054906101000a900460ff1660026000876000191660001916815260200190815260200160002060050160149054906101000a900460ff1660038111156139d357fe5b8560038111156139df57fe5b146040518085600019166000191681526020018460038111156139fe57fe5b60ff168152602001836003811115613a1257fe5b60ff1681526020018215151515815260200194505050505060405180910390a160026000836000191660001916815260200190815260200160002060050160149054906101000a900460ff166003811115613a6957fe5b816003811115613a7557fe5b1415613dd2577fe3ba00a8dded0a3010943716a9cd686d729f536fd0e8d41406c43591354b9d9a8a336040518083600019166000191681526020018273ffffffffffffffffffffffffffffffffffffffff1673ffffffffffffffffffffffffffffffffffffffff1681526020019250505060405180910390a1613af88a33614204565b985060009750600460019054906101000a900460ff1696505b600460009054906101000a900460ff1660ff168760ff16111515613b415786880197508680600101975050613b11565b600260008b6000191660001916815260200190815260200160002060080160008a73ffffffffffffffffffffffffffffffffffffffff1673ffffffffffffffffffffffffffffffffffffffff168152602001908152602001600020955060009450600096505b600a8760ff161015613c2257600093505b600a841015613c15576000868860ff16600a81101515613bd457fe5b0185600a81101515613be257fe5b602091828204019190069054906101000a900460000b60000b1215613c08576001850194505b8380600101945050613bb8565b8680600101975050613ba7565b8760ff168560ff16101515613dd1576003600260008c6000191660001916815260200190815260200160002060050160146101000a81548160ff02191690836003811115613c6c57fe5b02179055507fb4c24ba44adc7dd6a2c224259edcf26e548b1048e4b8193ee5c753d4feb33bb18a6003604051808360001916600019168152602001826003811115613cb357fe5b60ff16815260200180602001828103825260088152602001807f46696e6973686564000000000000000000000000000000000000000000000000815250602001935050505060405180910390a133600260008c6000191660001916815260200190815260200160002060050160006101000a81548173ffffffffffffffffffffffffffffffffffffffff021916908373ffffffffffffffffffffffffffffffffffffffff1602179055507fa23e518eb8cf70d847192dfe67d27e1f9bc2e9963e43efa2fbb90acea1dbe3a28a336040518083600019166000191681526020018273ffffffffffffffffffffffffffffffffffffffff1673ffffffffffffffffffffffffffffffffffffffff1681526020019250505060405180910390a15b5b50505b5050505050505050565b60026020528060005260406000206000915090508060000160009054906101000a900473ffffffffffffffffffffffffffffffffffffffff16908060010160009054906101000a900473ffffffffffffffffffffffffffffffffffffffff1690806002018054600181600116156101000203166002900480601f016020809104026020016040519081016040528092919081815260200182805460018160011615610100020316600290048015613ed75780601f10613eac57610100808354040283529160200191613ed7565b820191906000526020600020905b815481529060010190602001808311613eba57829003601f168201915b505050505090806003018054600181600116156101000203166002900480601f016020809104026020016040519081016040528092919081815260200182805460018160011615610100020316600290048015613f755780601f10613f4a57610100808354040283529160200191613f75565b820191906000526020600020905b815481529060010190602001808311613f5857829003601f168201915b5050505050908060040160009054906101000a900473ffffffffffffffffffffffffffffffffffffffff16908060050160009054906101000a900473ffffffffffffffffffffffffffffffffffffffff16908060050160149054906101000a900460ff16908060060154908060070154905089565b6000808360007fb50b8c7887cd42a9ec052cf6f08c93c0987703edc4bb85236958ac3effb6aacd828260026000866000191660001916815260200190815260200160002060050160149054906101000a900460ff1660026000876000191660001916815260200190815260200160002060050160149054906101000a900460ff16600381111561407657fe5b85600381111561408257fe5b146040518085600019166000191681526020018460038111156140a157fe5b60ff1681526020018360038111156140b557fe5b60ff1681526020018215151515815260200194505050505060405180910390a160026000836000191660001916815260200190815260200160002060050160149054906101000a900460ff16600381111561410c57fe5b81600381111561411857fe5b14156141fc57600093505b600a8460ff1610156141fb57600092505b600a8360ff1610156141ee57600060026000886000191660001916815260200190815260200160002060080160008773ffffffffffffffffffffffffffffffffffffffff1673ffffffffffffffffffffffffffffffffffffffff1681526020019081526020016000208560ff16600a811015156141ad57fe5b018460ff16600a811015156141be57fe5b602091828204019190066101000a81548160ff021916908360000b60ff1602179055508280600101935050614134565b8380600101945050614123565b5b505050505050565b600060026000846000191660001916815260200190815260200160002060000160009054906101000a900473ffffffffffffffffffffffffffffffffffffffff1673ffffffffffffffffffffffffffffffffffffffff168273ffffffffffffffffffffffffffffffffffffffff1614156142be5760026000846000191660001916815260200190815260200160002060010160009054906101000a900473ffffffffffffffffffffffffffffffffffffffff169050614300565b60026000846000191660001916815260200190815260200160002060000160009054906101000a900473ffffffffffffffffffffffffffffffffffffffff1690505b92915050565b60008082121561433a57817fffffffffffffffffffffffffffffffffffffffffffffffffffffffffffffffff02905061433e565b8190505b919050565b828054600181600116156101000203166002900490600052602060002090601f016020900481019282601f1061438457805160ff19168380011785556143b2565b828001600101855582156143b2579182015b828111156143b1578251825591602001919060010190614396565b5b5090506143bf91906144f9565b5090565b610c8060405190810160405280600a905b6143dc61451e565b8152602001906001900390816143d45790505090565b828054600181600116156101000203166002900490600052602060002090601f016020900481019282601f1061442b5780548555614468565b8280016001018555821561446857600052602060002091601f016020900482015b8281111561446757825482559160010191906001019061444c565b5b50905061447591906144f9565b5090565b828054600181600116156101000203166002900490600052602060002090601f016020900481019282601f106144ba57805160ff19168380011785556144e8565b828001600101855582156144e8579182015b828111156144e75782518255916020019190600101906144cc565b5b5090506144f591906144f9565b5090565b61451b91905b808211156145175760008160009055506001016144ff565b5090565b90565b61014060405190810160405280600a906020820280388339808201915050905050905600a165627a7a723058209f542b2e7a9e2a4026704ef8ec0219ca8e751f14ef1a1747d7012b37a3b94bf80029",
  "source": "pragma solidity ^0.4.2;\n\ncontract BattleShip {\n\n    enum GameState { Created, SettingUp, Playing, Finished }\n\n    struct Game {\n        address player1;\n        address player2;\n        string player1Name;\n        string player2Name;\n        address currentPlayer;\n        address winner;\n        GameState gameState;\n        uint pot;\n        uint availablePot;\n        mapping(address => int8[10][10]) playerGrids;\n        mapping(address => bool[4]) playerShips;\n    }\n\n    mapping(address => string) public playerNames;\n    mapping(bytes32 => bool) public playerNameExists;\n    mapping(bytes32 => Game) public games;\n    mapping(address => bytes32[]) playerGames;\n\n    uint8 public maxBoatLength;\n    uint8 public minBoatLength;\n\n    // otherPlayerBoard\n    int8[10][10] otherPlayerBoard;\n\n    event PlayerSetName(address player, string name);\n\n    event GameInitialized(bytes32 gameId, address player1, bool player1GoesFirst, uint pot);\n    event GameJoined(bytes32 gameId, address player2);\n    event ShipPlaced(bytes32 gameId, address player, uint8 startX, uint8 endX, uint8 startY, uint8 endY);\n    event StateChanged(bytes32 gameId, GameState newState, string newStateString);\n\n    event MadeMove(bytes32 gameId, address currentPlayer, uint8 x, uint8 y);\n    event HitBattleShip(bytes32 gameId, address currentPlayer, uint8 x, uint8 y, int8 pieceHit);\n    event WonChallenged(bytes32 gameId, address player);\n    event GameEnded(bytes32 gameId, address winner);\n    \n    event WinningsWithdrawn(bytes32 gameId, address player);\n    event WithdrawFailed(bytes32 gameId, address player, string reason);\n\n    event IsStateCalled(bytes32 gameId, GameState currentState, GameState comparingState, bool equal);\n    event IsPlayerCalled(bytes32 gameId, address player);\n    event LogCurrentState(bytes32 gameId, GameState state);\n\n    function stringToBytes32(string memory source) returns (bytes32 result) {\n        assembly {\n            result := mload(add(source, 32))\n        }\n    }\n\n    modifier hasName() {\n        if(stringToBytes32(playerNames[msg.sender]) != bytes32(0x0)) _;\n    }\n\n    modifier isPlayer(bytes32 gameId) {\n        IsPlayerCalled(gameId,msg.sender);\n\n        if(msg.sender == games[gameId].player1 || msg.sender == games[gameId].player2) _;\n    }\n\n    modifier isCurrentPlayer(bytes32 gameId) {\n        if(msg.sender == games[gameId].currentPlayer) _;\n    }\n\n    modifier isState(bytes32 gameId, GameState state){\n        IsStateCalled(gameId,state, games[gameId].gameState, state == games[gameId].gameState);\n        if(state == games[gameId].gameState) _;\n    }\n\n    function abs(int number) internal constant returns(uint unumber) {\n        if(number < 0) return uint(-1 * number);\n        return uint(number);\n    }\n\n\n    function initialiseBoard(bytes32 gameId, address player) isState(gameId, GameState.Created) internal {\n        for(uint8 i = 0; i < 10; i++) {\n            for(uint8 j = 0; j < 10; j++) {\n                games[gameId].playerGrids[player][i][j] = 0;\n            }\n        }\n    }\n\n    function findOtherPlayer(bytes32 gameId,address player) internal constant returns(address) {\n        if(player == games[gameId].player1) return games[gameId].player2;\n        return games[gameId].player1;\n    }\n\n    function BattleShip() {\n        maxBoatLength = 5;\n        minBoatLength = 2;\n    }\n\n    function setName(string name){\n        require(bytes(name).length <= 30);\n        bytes32 bytesname = stringToBytes32(name);\n        require(!playerNameExists[bytesname]);\n        playerNames[msg.sender] = name;\n        playerNameExists[bytesname] = true;\n        PlayerSetName(msg.sender,name);\n    }\n\n    function findPot(bytes32 gameId) constant returns(uint){\n        return games[gameId].pot;\n    }\n\n    function newGame(bool goFirst) hasName payable returns(bytes32){\n        require(msg.value > 0);\n        // Generate game id based on player's addresses and current block number\n        bytes32 gameId = sha3(msg.sender, block.number);\n        playerGames[msg.sender].push(gameId);\n        games[gameId] = Game(\n            msg.sender, // address player1;\n            address(0), // address player2;\n            playerNames[msg.sender], //     string player1Name;\n            \"\",  // string player2Name;\n            address(0), // address currentPlayer;\n            address(0), // address winner;\n            GameState.Created, // GameState gameState;\n            msg.value * 2, // uint pot;\n            msg.value * 2 // uint availablePot;\n        );\n        if(goFirst){\n            games[gameId].currentPlayer = msg.sender;\n        }\n        GameInitialized(gameId,msg.sender,goFirst,msg.value * 2);\n        initialiseBoard(gameId,msg.sender);\n        return gameId;\n    }\n\n    function joinGame(bytes32 gameId) hasName isState(gameId, GameState.Created) payable {\n        require(games[gameId].player2 == address(0));\n        require(msg.value == games[gameId].pot / 2);\n        games[gameId].player2 = msg.sender;\n        games[gameId].player2Name = playerNames[msg.sender];\n        playerGames[msg.sender].push(gameId);\n        if(games[gameId].currentPlayer == address(0)){\n            games[gameId].currentPlayer = msg.sender;\n        }\n        initialiseBoard(gameId,msg.sender);\n        GameJoined(gameId,msg.sender);\n        games[gameId].gameState = GameState.SettingUp;\n        StateChanged(gameId,GameState.SettingUp,\"SettingUp\");\n    }\n\n    function showBoard(bytes32 gameId) isPlayer(gameId) constant returns(int8[10][10] board) {\n        return games[gameId].playerGrids[msg.sender];\n    }\n\n    function showOtherPlayerBoard(bytes32 gameId) isPlayer(gameId) constant returns(int8[10][10]){\n        require(games[gameId].gameState == GameState.Playing || games[gameId].gameState == GameState.Finished);\n        address otherPlayer = findOtherPlayer(gameId,msg.sender);\n        int8[10][10] otherGrid = games[gameId].playerGrids[otherPlayer];\n        for(uint8 i = 0; i < 10; i++) {\n            for(uint j = 0; j < 10; j++) {\n                if(otherGrid[i][j] > 0 && otherGrid[i][j] < int(maxBoatLength + 1)){\n                    otherPlayerBoard[i][j] = 0;\n                }else{\n                    otherPlayerBoard[i][j] = otherGrid[i][j];\n                }\n            }\n        }\n        return otherPlayerBoard;\n    }\n    \n    function placeShip(bytes32 gameId, uint8 startX, uint8 endX, uint8 startY, uint8 endY) isPlayer(gameId) isState(gameId,GameState.SettingUp) {\n        \n        require(startX == endX || startY == endY);\n        require(startX < endX || startY < endY);\n        require(startX  < 10 && startX  >= 0 &&\n                endX    < 10 && endX    >= 0 &&\n                startY  < 10 && startY  >= 0 &&\n                endY    < 10 && endY    >= 0);\n        for(uint8 x = startX; x <= endX; x++) {\n            for(uint8 y = startY; y <= endY; y++) {\n                require(games[gameId].playerGrids[msg.sender][x][y] == 0);\n            }   \n        }\n        uint8 boatLength = 1;\n        if(startX == endX) {\n            boatLength += uint8(abs(int(startY) - int(endY)));\n        }else if(startY == endY) {\n            boatLength += uint8(abs(int(startX) - int(endX)));\n        }\n        require(boatLength <= maxBoatLength && boatLength >= minBoatLength);\n        require(!(games[gameId].playerShips[msg.sender][boatLength - minBoatLength]));\n\n        games[gameId].playerShips[msg.sender][boatLength - minBoatLength] = true;\n\n        LogCurrentState(gameId,games[gameId].gameState);\n\n        for(x = startX; x <= endX; x++) {\n            for(y = startY; y <= endY; y++) {\n                games[gameId].playerGrids[msg.sender][x][y] = int8(boatLength);\n            }   \n        }\n\n        ShipPlaced(gameId, msg.sender, startX, endX, startY, endY);\n    }\n\n    function finishPlacing(bytes32 gameId) isPlayer(gameId) isState(gameId,GameState.SettingUp) {\n        bool ready = true;\n        for(uint8 i = 0; i <= maxBoatLength - minBoatLength; i++) {\n            if(!games[gameId].playerShips[games[gameId].player1][i] || !games[gameId].playerShips[games[gameId].player2][i]) {\n                ready = false;\n                break;\n            }\n        }\n        require(ready);\n        games[gameId].gameState = GameState.Playing;\n        StateChanged(gameId,GameState.Playing,\"Playing\");\n    }\n\n    function makeMove(bytes32 gameId, uint8 x, uint8 y) isState(gameId,GameState.Playing) isCurrentPlayer(gameId) {\n        address otherPlayer = findOtherPlayer(gameId,msg.sender);\n        require(games[gameId].playerGrids[otherPlayer][x][y] >= 0);\n        if(games[gameId].playerGrids[otherPlayer][x][y] > 0 && games[gameId].playerGrids[otherPlayer][x][y] < int(maxBoatLength + 1)) {\n            HitBattleShip(gameId,msg.sender,x,y,games[gameId].playerGrids[otherPlayer][x][y]);\n            games[gameId].playerGrids[otherPlayer][x][y] = -1 * games[gameId].playerGrids[otherPlayer][x][y];\n        }else{\n            games[gameId].playerGrids[otherPlayer][x][y] = int8(maxBoatLength + 1);\n        }\n        games[gameId].currentPlayer = otherPlayer;\n        MadeMove(gameId,msg.sender,x,y);\n    }\n\n    function sayWon(bytes32 gameId) isPlayer(gameId) isState(gameId,GameState.Playing) {\n        WonChallenged(gameId,msg.sender);\n        address otherPlayer = findOtherPlayer(gameId,msg.sender);\n        uint8 requiredToWin = 0;\n        for(uint8 i = minBoatLength; i <= maxBoatLength; i++){\n            requiredToWin += i;\n        }\n        int8[10][10] otherPlayerGrid = games[gameId].playerGrids[otherPlayer];\n        uint8 numberHit = 0;\n        for(i = 0;  i < 10; i++) {\n            for(uint j = 0;  j < 10; j++) {\n                if(otherPlayerGrid[i][j] < 0){\n                    numberHit += 1;\n                }\n            }    \n        }\n        if(numberHit >= requiredToWin){\n            games[gameId].gameState = GameState.Finished;\n            StateChanged(gameId,GameState.Finished,\"Finished\");\n            games[gameId].winner = msg.sender;\n            GameEnded(gameId,msg.sender);\n        }\n    }\n\n    function withdraw(bytes32 gameId) {\n        if(games[gameId].gameState != GameState.Finished){\n            WithdrawFailed(gameId,msg.sender,'This game isnt over yet');\n        }else{\n            uint amount = games[gameId].availablePot;\n            if(amount > 0){\n                if(msg.sender == games[gameId].winner){\n                    games[gameId].availablePot = 0;\n                    msg.sender.transfer(amount);\n                    WinningsWithdrawn(gameId, msg.sender);\n                }else{\n                    WithdrawFailed(gameId,msg.sender,'This player hasnt won the game');\n                }\n            }else{\n                WithdrawFailed(gameId,msg.sender,'No more funds in the contract for this game');\n            }\n        }\n\n    }\n    \n    /* This unnamed function is called whenever someone tries to send ether to the contract */\n    function () {\n        throw; // Prevents accidental sending of ether\n    }\n}",
  "sourcePath": "/Users/alexeimihalopoulos/Desktop/consensys-2018/monopoly/contracts/battleship.sol",
  "compiler": {
    "name": "solc",
    "version": "0.4.24+commit.e67f0147.Emscripten.clang"
  },
  "schemaVersion": "2.0.1",
  "updatedAt": "2018-08-03T19:40:29.646Z"
}