{
  "contractName": "Monopoly",
  "abi": [
    {
      "constant": true,
      "inputs": [],
      "name": "totalSupply",
      "outputs": [
        {
          "name": "",
          "type": "uint256"
        }
      ],
      "payable": false,
      "stateMutability": "view",
      "type": "function"
    },
    {
      "constant": true,
      "inputs": [
        {
          "name": "",
          "type": "bytes32"
        }
      ],
      "name": "games",
      "outputs": [
        {
          "name": "gameState",
          "type": "uint8"
        },
        {
          "name": "name",
          "type": "string"
        },
        {
          "name": "currentPlayer",
          "type": "uint256"
        },
        {
          "name": "houseIndex",
          "type": "uint256"
        },
        {
          "name": "hotelIndex",
          "type": "uint256"
        },
        {
          "name": "owner",
          "type": "address"
        },
        {
          "name": "gameId",
          "type": "bytes32"
        }
      ],
      "payable": false,
      "stateMutability": "view",
      "type": "function"
    },
    {
      "inputs": [],
      "payable": false,
      "stateMutability": "nonpayable",
      "type": "constructor"
    },
    {
      "anonymous": false,
      "inputs": [
        {
          "indexed": false,
          "name": "gameId",
          "type": "bytes32"
        },
        {
          "indexed": false,
          "name": "pot",
          "type": "uint256"
        }
      ],
      "name": "GameInitialized",
      "type": "event"
    },
    {
      "anonymous": false,
      "inputs": [
        {
          "indexed": false,
          "name": "gameId",
          "type": "bytes32"
        },
        {
          "indexed": false,
          "name": "player",
          "type": "address"
        }
      ],
      "name": "PlayerJoined",
      "type": "event"
    },
    {
      "anonymous": false,
      "inputs": [],
      "name": "BoardBuilt",
      "type": "event"
    },
    {
      "constant": false,
      "inputs": [
        {
          "name": "numPlayers",
          "type": "uint8"
        },
        {
          "name": "randomNumber",
          "type": "uint8"
        },
        {
          "name": "_name",
          "type": "string"
        }
      ],
      "name": "createGame",
      "outputs": [
        {
          "name": "",
          "type": "bytes32"
        }
      ],
      "payable": true,
      "stateMutability": "payable",
      "type": "function"
    },
    {
      "constant": false,
      "inputs": [
        {
          "name": "num",
          "type": "uint256"
        },
        {
          "name": "gameId",
          "type": "bytes32"
        }
      ],
      "name": "takeTurn",
      "outputs": [],
      "payable": false,
      "stateMutability": "nonpayable",
      "type": "function"
    },
    {
      "constant": true,
      "inputs": [
        {
          "name": "_address",
          "type": "address"
        }
      ],
      "name": "getPlayerGames",
      "outputs": [
        {
          "name": "",
          "type": "bytes32[]"
        }
      ],
      "payable": false,
      "stateMutability": "view",
      "type": "function"
    },
    {
      "constant": true,
      "inputs": [
        {
          "name": "gameId",
          "type": "bytes32"
        }
      ],
      "name": "getGame",
      "outputs": [
        {
          "name": "",
          "type": "uint8"
        },
        {
          "name": "",
          "type": "string"
        },
        {
          "name": "",
          "type": "uint256"
        },
        {
          "name": "",
          "type": "uint256"
        },
        {
          "name": "",
          "type": "uint256"
        },
        {
          "name": "",
          "type": "address"
        },
        {
          "name": "",
          "type": "bytes32"
        },
        {
          "name": "",
          "type": "address[]"
        }
      ],
      "payable": false,
      "stateMutability": "view",
      "type": "function"
    },
    {
      "constant": true,
      "inputs": [
        {
          "name": "gameId",
          "type": "bytes32"
        },
        {
          "name": "playerId",
          "type": "address"
        }
      ],
      "name": "getPlayer",
      "outputs": [
        {
          "name": "",
          "type": "string"
        },
        {
          "name": "",
          "type": "uint256"
        },
        {
          "name": "",
          "type": "uint256"
        },
        {
          "name": "",
          "type": "uint256"
        }
      ],
      "payable": false,
      "stateMutability": "view",
      "type": "function"
    },
    {
      "constant": false,
      "inputs": [
        {
          "name": "gameId",
          "type": "bytes32"
        },
        {
          "name": "_name",
          "type": "string"
        }
      ],
      "name": "joinGame",
      "outputs": [],
      "payable": true,
      "stateMutability": "payable",
      "type": "function"
    },
    {
      "constant": false,
      "inputs": [
        {
          "name": "gameId",
          "type": "bytes32"
        }
      ],
      "name": "startGame",
      "outputs": [],
      "payable": false,
      "stateMutability": "nonpayable",
      "type": "function"
    }
  ],
  "bytecode": "0x608060405234801561001057600080fd5b50611539806100206000396000f300608060405260043610610099576000357c0100000000000000000000000000000000000000000000000000000000900463ffffffff1680630824f78a1461009e578063129daf841461013057806318160ddd146101c85780634400336f146101f35780634c92fb12146102d257806373931bbf14610303578063de06cdeb14610461578063e6378d3a1461049c578063f579f88214610506575b600080fd5b610112600480360381019080803560ff169060200190929190803560ff169060200190929190803590602001908201803590602001908080601f016020809104026020016040519081016040528093929190818152602001838380828437820191505050505050919291929050505061061c565b60405180826000191660001916815260200191505060405180910390f35b34801561013c57600080fd5b50610171600480360381019080803573ffffffffffffffffffffffffffffffffffffffff169060200190929190505050610863565b6040518080602001828103825283818151815260200191508051906020019060200280838360005b838110156101b4578082015181840152602081019050610199565b505050509050019250505060405180910390f35b3480156101d457600080fd5b506101dd610947565b6040518082815260200191505060405180910390f35b3480156101ff57600080fd5b506102426004803603810190808035600019169060200190929190803573ffffffffffffffffffffffffffffffffffffffff16906020019092919050505061094d565b6040518080602001858152602001848152602001838152602001828103825286818151815260200191508051906020019080838360005b83811015610294578082015181840152602081019050610279565b50505050905090810190601f1680156102c15780820380516001836020036101000a031916815260200191505b509550505050505060405180910390f35b3480156102de57600080fd5b506103016004803603810190808035600019169060200190929190505050610b04565b005b34801561030f57600080fd5b506103326004803603810190808035600019169060200190929190505050610c0f565b6040518089600281111561034257fe5b60ff168152602001806020018881526020018781526020018681526020018573ffffffffffffffffffffffffffffffffffffffff1673ffffffffffffffffffffffffffffffffffffffff16815260200184600019166000191681526020018060200183810383528a818151815260200191508051906020019080838360005b838110156103dc5780820151818401526020810190506103c1565b50505050905090810190601f1680156104095780820380516001836020036101000a031916815260200191505b50838103825284818151815260200191508051906020019060200280838360005b8381101561044557808201518184015260208101905061042a565b505050509050019a505050505050505050505060405180910390f35b34801561046d57600080fd5b5061049a600480360381019080803590602001909291908035600019169060200190929190505050610e7c565b005b6105046004803603810190808035600019169060200190929190803590602001908201803590602001908080601f0160208091040260200160405190810160405280939291908181526020018383808284378201915050505050509192919290505050610f0c565b005b34801561051257600080fd5b506105356004803603810190808035600019169060200190929190505050610f9b565b6040518088600281111561054557fe5b60ff168152602001806020018781526020018681526020018581526020018473ffffffffffffffffffffffffffffffffffffffff1673ffffffffffffffffffffffffffffffffffffffff1681526020018360001916600019168152602001828103825288818151815260200191508051906020019080838360005b838110156105db5780820151818401526020810190506105c0565b50505050905090810190601f1680156106085780820380516001836020036101000a031916815260200191505b509850505050505050505060405180910390f35b6000803343604051808373ffffffffffffffffffffffffffffffffffffffff1673ffffffffffffffffffffffffffffffffffffffff166c010000000000000000000000000281526014018281526020019250505060405180910390209050610100604051908101604052806000600281111561069457fe5b81526020018481526020018560ff16815260200160008152602001600081526020013373ffffffffffffffffffffffffffffffffffffffff16815260200182600019168152602001600060405190808252806020026020018201604052801561070c5781602001602082028038833980820191505090505b5081525060026000836000191660001916815260200190815260200160002060008201518160000160006101000a81548160ff0219169083600281111561074f57fe5b021790555060208201518160010190805190602001906107709291906112eb565b5060408201518160020155606082015181600301556080820151816004015560a08201518160050160006101000a81548173ffffffffffffffffffffffffffffffffffffffff021916908373ffffffffffffffffffffffffffffffffffffffff16021790555060c0820151816006019060001916905560e082015181600701908051906020019061080292919061136b565b509050506108118133856110a2565b7fefab50ac7abb03a135c0eb394a17595212bbe2ad2db2576a2b1d5fdeb092675981346040518083600019166000191681526020018281526020019250505060405180910390a1809150509392505050565b6060600060606000600360008673ffffffffffffffffffffffffffffffffffffffff1673ffffffffffffffffffffffffffffffffffffffff168152602001908152602001600020925082805490506040519080825280602002602001820160405280156108df5781602001602082028038833980820191505090505b509150600090505b815181101561093c5782818154811015156108fe57fe5b9060005260206000200154828281518110151561091757fe5b90602001906020020190600019169081600019168152505080806001019150506108e7565b819350505050919050565b60005481565b6060600080600061095c6113f5565b60026000886000191660001916815260200190815260200160002060080160008773ffffffffffffffffffffffffffffffffffffffff1673ffffffffffffffffffffffffffffffffffffffff16815260200190815260200160002060a060405190810160405290816000820160009054906101000a900473ffffffffffffffffffffffffffffffffffffffff1673ffffffffffffffffffffffffffffffffffffffff1673ffffffffffffffffffffffffffffffffffffffff168152602001600182018054600181600116156101000203166002900480601f016020809104026020016040519081016040528092919081815260200182805460018160011615610100020316600290048015610ab25780601f10610a8757610100808354040283529160200191610ab2565b820191906000526020600020905b815481529060010190602001808311610a9557829003601f168201915b5050505050815260200160028201548152602001600382015481526020016004820154815250509050806020015181604001518260600151836080015183935094509450945094505092959194509250565b3373ffffffffffffffffffffffffffffffffffffffff1660026000836000191660001916815260200190815260200160002060050160009054906101000a900473ffffffffffffffffffffffffffffffffffffffff1673ffffffffffffffffffffffffffffffffffffffff16141515610b7c57600080fd5b60006002811115610b8957fe5b60026000836000191660001916815260200190815260200160002060000160009054906101000a900460ff166002811115610bc057fe5b141515610bcc57600080fd5b600160026000836000191660001916815260200190815260200160002060000160006101000a81548160ff02191690836002811115610c0757fe5b021790555050565b6000606060008060008060006060610c2561143b565b600260008b6000191660001916815260200190815260200160002061010060405190810160405290816000820160009054906101000a900460ff166002811115610c6b57fe5b6002811115610c7657fe5b8152602001600182018054600181600116156101000203166002900480601f016020809104026020016040519081016040528092919081815260200182805460018160011615610100020316600290048015610d135780601f10610ce857610100808354040283529160200191610d13565b820191906000526020600020905b815481529060010190602001808311610cf657829003601f168201915b505050505081526020016002820154815260200160038201548152602001600482015481526020016005820160009054906101000a900473ffffffffffffffffffffffffffffffffffffffff1673ffffffffffffffffffffffffffffffffffffffff1673ffffffffffffffffffffffffffffffffffffffff16815260200160068201546000191660001916815260200160078201805480602002602001604051908101604052809291908181526020018280548015610e2757602002820191906000526020600020905b8160009054906101000a900473ffffffffffffffffffffffffffffffffffffffff1673ffffffffffffffffffffffffffffffffffffffff1681526020019060010190808311610ddd575b5050505050815250509050806000015181602001518260400151836060015184608001518560a001518660c001518760e001518696508090509850985098509850985098509850985050919395975091939597565b60016002600083600019166000191681526020019081526020016000206002016000828254019250508190555060026000826000191660001916815260200190815260200160002060070160026000836000191660001916815260200190815260200160002060020154815481101515610ef257fe5b9060005260206000200160009054906101000a9050505050565b60006002811115610f1957fe5b60026000846000191660001916815260200190815260200160002060000160009054906101000a900460ff166002811115610f5057fe5b141515610f5c57600080fd5b600860026000846000191660001916815260200190815260200160002060070180549050101515610f8c57600080fd5b610f978233836110a2565b5050565b60026020528060005260406000206000915090508060000160009054906101000a900460ff1690806001018054600181600116156101000203166002900480601f01602080910402602001604051908101604052809291908181526020018280546001816001161561010002031660029004801561105a5780601f1061102f5761010080835404028352916020019161105a565b820191906000526020600020905b81548152906001019060200180831161103d57829003601f168201915b5050505050908060020154908060030154908060040154908060050160009054906101000a900473ffffffffffffffffffffffffffffffffffffffff16908060060154905087565b6105dc60008082825401925050819055506002600084600019166000191681526020019081526020016000206007013390806001815401808255809150509060018203906000526020600020016000909192909190916101000a81548173ffffffffffffffffffffffffffffffffffffffff021916908373ffffffffffffffffffffffffffffffffffffffff16021790555050600360008373ffffffffffffffffffffffffffffffffffffffff1673ffffffffffffffffffffffffffffffffffffffff16815260200190815260200160002083908060018154018082558091505090600182039060005260206000200160009091929091909150906000191690555060a0604051908101604052803373ffffffffffffffffffffffffffffffffffffffff1681526020018281526020016105dc8152602001600260008660001916600019168152602001908152602001600020600701805490508152602001600081525060026000856000191660001916815260200190815260200160002060080160003373ffffffffffffffffffffffffffffffffffffffff1673ffffffffffffffffffffffffffffffffffffffff16815260200190815260200160002060008201518160000160006101000a81548173ffffffffffffffffffffffffffffffffffffffff021916908373ffffffffffffffffffffffffffffffffffffffff16021790555060208201518160010190805190602001906112c49291906112eb565b50604082015181600201556060820151816003015560808201518160040155905050505050565b828054600181600116156101000203166002900490600052602060002090601f016020900481019282601f1061132c57805160ff191683800117855561135a565b8280016001018555821561135a579182015b8281111561135957825182559160200191906001019061133e565b5b50905061136791906114a5565b5090565b8280548282559060005260206000209081019282156113e4579160200282015b828111156113e35782518260006101000a81548173ffffffffffffffffffffffffffffffffffffffff021916908373ffffffffffffffffffffffffffffffffffffffff1602179055509160200191906001019061138b565b5b5090506113f191906114ca565b5090565b60a060405190810160405280600073ffffffffffffffffffffffffffffffffffffffff168152602001606081526020016000815260200160008152602001600081525090565b610100604051908101604052806000600281111561145557fe5b815260200160608152602001600081526020016000815260200160008152602001600073ffffffffffffffffffffffffffffffffffffffff16815260200160008019168152602001606081525090565b6114c791905b808211156114c35760008160009055506001016114ab565b5090565b90565b61150a91905b8082111561150657600081816101000a81549073ffffffffffffffffffffffffffffffffffffffff0219169055506001016114d0565b5090565b905600a165627a7a7230582054cc5d5f307ded6567edc6a5ab2b9729df8f3180453ed1a2f2f395b0be03c0ff0029",
  "source": "pragma solidity ^0.4.18;\n\ncontract Monopoly {\n \n  enum GameState { Created, Playing, Finished }\n \n  struct Player{\n    address adress;\n    string name;\n    uint balance;\n    uint index;\n    uint boardIndex;\n  }\n\n  struct Game{\n    GameState gameState;\n    string name;\n    uint currentPlayer;\n    uint houseIndex;\n    uint hotelIndex;\n    address owner;\n    bytes32 gameId;\n    address[] playerIndex;\n    mapping(address => Player) players;\n  }\n\n  uint constant maxPlayers = 8;\n  uint constant minPlayers = 2;\n  \n  uint256 public totalSupply;\n  mapping(address => uint256) balanceOf;\n  \n  mapping(bytes32 => Game) public games;\n  mapping(address => bytes32[]) playerGames;\n  \n  event GameInitialized(bytes32 gameId, uint pot);\n  event PlayerJoined(bytes32 gameId, address player);\n  event BoardBuilt();\n  \n  constructor () {\n  }\n  \n  function createGame(uint8 numPlayers, uint8 randomNumber, string _name) public payable returns(bytes32) {\n    bytes32 gameId = keccak256(msg.sender, block.number);\n    games[gameId] = Game(\n        GameState.Created,\n        _name,\n        randomNumber, \n        0, // 0 houses used so far\n        0, // 0 hotels used so far\n        msg.sender,\n        gameId,\n        new address[](0)\n    );\n    registerPlayer(gameId, msg.sender, _name);\n    \n    emit GameInitialized(gameId, msg.value);\n    return gameId;\n  }\n  \n  function takeTurn(uint num, bytes32 gameId) public{\n    games[gameId].currentPlayer += 1;\n    games[gameId].playerIndex[games[gameId].currentPlayer];\n  }\n  \n  function getPlayerGames(address _address) public view returns(bytes32[]){\n      bytes32[] _playerGames = playerGames[_address];\n      bytes32[] memory v = new bytes32[](_playerGames.length);\n      for(uint i = 0; i < v.length; i++){\n        v[i] = _playerGames[i];\n      }\n      return v;\n  }\n\n  function getGame(bytes32 gameId) public view returns(GameState, string, uint, uint, uint, address, bytes32, address[]){\n    Game memory g = games[gameId];\n    \n    return (g.gameState, g.name, g.currentPlayer, g.houseIndex, g.hotelIndex, g.owner, g.gameId, g.playerIndex);\n  }\n  \n  function getPlayer(bytes32 gameId, address playerId) public view returns(string, uint, uint, uint){\n      Player memory p = games[gameId].players[playerId];\n      return (p.name, p.balance, p.index, p.boardIndex);\n  }\n  \n  function registerPlayer(bytes32 gameId, address _address, string _name) private{\n      totalSupply += 1500;\n      games[gameId].playerIndex.push(msg.sender);\n      playerGames[_address].push(gameId);\n      \n      games[gameId].players[msg.sender] = Player(\n        msg.sender,\n        _name,\n        1500,\n        games[gameId].playerIndex.length,\n        0\n    );\n  }\n  \n  function joinGame(bytes32 gameId, string _name) public payable{\n      require(games[gameId].gameState == GameState.Created); \n      require(games[gameId].playerIndex.length < maxPlayers); //check if max players reached\n      // check if player already joined\n      registerPlayer(gameId, msg.sender, _name);\n  }\n  \n  function startGame(bytes32 gameId) public{\n      require(games[gameId].owner == msg.sender);\n      require(games[gameId].gameState == GameState.Created);\n      \n      \n      //randomize order of chance/community\n      \n      games[gameId].gameState = GameState.Playing;\n  }\n  \n  \n}\n\n",
  "sourcePath": "/Users/alexeimihalopoulos/Desktop/consensys-2018/monopoly/contracts/Monopoly.sol",
  "compiler": {
    "name": "solc",
    "version": "0.4.24+commit.e67f0147.Emscripten.clang"
  },
  "schemaVersion": "2.0.1",
  "updatedAt": "2018-08-03T01:44:15.030Z"
}