{
  "contractName": "Monopoly",
  "abi": [
    {
      "constant": true,
      "inputs": [
        {
          "name": "",
          "type": "bytes32"
        }
      ],
      "name": "games",
      "outputs": [
        {
          "name": "gameState",
          "type": "uint8"
        },
        {
          "name": "currentPlayer",
          "type": "address"
        },
        {
          "name": "houseIndex",
          "type": "uint256"
        },
        {
          "name": "hotelIndex",
          "type": "uint256"
        },
        {
          "name": "owner",
          "type": "address"
        }
      ],
      "payable": false,
      "stateMutability": "view",
      "type": "function"
    },
    {
      "inputs": [],
      "payable": false,
      "stateMutability": "nonpayable",
      "type": "constructor"
    },
    {
      "anonymous": false,
      "inputs": [
        {
          "indexed": false,
          "name": "gameId",
          "type": "bytes32"
        },
        {
          "indexed": false,
          "name": "pot",
          "type": "uint256"
        }
      ],
      "name": "GameInitialized",
      "type": "event"
    },
    {
      "anonymous": false,
      "inputs": [
        {
          "indexed": false,
          "name": "gameId",
          "type": "bytes32"
        },
        {
          "indexed": false,
          "name": "player",
          "type": "address"
        }
      ],
      "name": "PlayerJoined",
      "type": "event"
    },
    {
      "anonymous": false,
      "inputs": [],
      "name": "BoardBuilt",
      "type": "event"
    },
    {
      "constant": false,
      "inputs": [
        {
          "name": "numPlayers",
          "type": "uint8"
        },
        {
          "name": "_name",
          "type": "string"
        }
      ],
      "name": "createGame",
      "outputs": [
        {
          "name": "",
          "type": "bytes32"
        }
      ],
      "payable": true,
      "stateMutability": "payable",
      "type": "function"
    },
    {
      "constant": false,
      "inputs": [
        {
          "name": "gameId",
          "type": "bytes32"
        }
      ],
      "name": "getGame",
      "outputs": [
        {
          "name": "",
          "type": "uint8"
        },
        {
          "name": "",
          "type": "address"
        },
        {
          "name": "",
          "type": "uint256"
        },
        {
          "name": "",
          "type": "uint256"
        },
        {
          "name": "",
          "type": "address[]"
        },
        {
          "name": "",
          "type": "address"
        }
      ],
      "payable": false,
      "stateMutability": "nonpayable",
      "type": "function"
    },
    {
      "constant": false,
      "inputs": [
        {
          "name": "gameId",
          "type": "bytes32"
        },
        {
          "name": "_name",
          "type": "string"
        }
      ],
      "name": "joinGame",
      "outputs": [],
      "payable": false,
      "stateMutability": "nonpayable",
      "type": "function"
    },
    {
      "constant": false,
      "inputs": [
        {
          "name": "gameId",
          "type": "bytes32"
        },
        {
          "name": "_playingOrder",
          "type": "uint256[]"
        }
      ],
      "name": "startGame",
      "outputs": [],
      "payable": false,
      "stateMutability": "nonpayable",
      "type": "function"
    },
    {
      "constant": false,
      "inputs": [
        {
          "name": "gameId",
          "type": "bytes32"
        }
      ],
      "name": "getPlayingOrder",
      "outputs": [],
      "payable": false,
      "stateMutability": "nonpayable",
      "type": "function"
    },
    {
      "constant": false,
      "inputs": [
        {
          "name": "gameId",
          "type": "bytes32"
        }
      ],
      "name": "takeTurn",
      "outputs": [],
      "payable": false,
      "stateMutability": "nonpayable",
      "type": "function"
    }
  ],
  "bytecode": "0x608060405234801561001057600080fd5b50611190806100206000396000f300608060405260043610610083576000357c0100000000000000000000000000000000000000000000000000000000900463ffffffff1680630d3e4b521461008857806368cd09a41461010d57806373931bbf1461013e578063b529a81c1461024d578063c7bdce0b1461027e578063e6378d3a146102f2578063f579f88214610369575b600080fd5b6100ef600480360381019080803560ff169060200190929190803590602001908201803590602001908080601f0160208091040260200160405190810160405280939291908181526020018383808284378201915050505050509192919290505050610430565b60405180826000191660001916815260200191505060405180910390f35b34801561011957600080fd5b5061013c60048036038101908080356000191690602001909291905050506106db565b005b34801561014a57600080fd5b5061016d60048036038101908080356000191690602001909291905050506106de565b6040518087600281111561017d57fe5b60ff1681526020018673ffffffffffffffffffffffffffffffffffffffff1673ffffffffffffffffffffffffffffffffffffffff168152602001858152602001848152602001806020018373ffffffffffffffffffffffffffffffffffffffff1673ffffffffffffffffffffffffffffffffffffffff168152602001828103825284818151815260200191508051906020019060200280838360005b83811015610234578082015181840152602081019050610219565b5050505090500197505050505050505060405180910390f35b34801561025957600080fd5b5061027c6004803603810190808035600019169060200190929190505050610922565b005b34801561028a57600080fd5b506102f0600480360381019080803560001916906020019092919080359060200190820180359060200190808060200260200160405190810160405280939291908181526020018383602002808284378201915050505050509192919290505050610925565b005b3480156102fe57600080fd5b506103676004803603810190808035600019169060200190929190803590602001908201803590602001908080601f0160208091040260200160405190810160405280939291908181526020018383808284378201915050505050509192919290505050610a60565b005b34801561037557600080fd5b506103986004803603810190808035600019169060200190929190505050610bd8565b604051808660028111156103a857fe5b60ff1681526020018573ffffffffffffffffffffffffffffffffffffffff1673ffffffffffffffffffffffffffffffffffffffff1681526020018481526020018381526020018273ffffffffffffffffffffffffffffffffffffffff1673ffffffffffffffffffffffffffffffffffffffff1681526020019550505050505060405180910390f35b6000803343604051808373ffffffffffffffffffffffffffffffffffffffff1673ffffffffffffffffffffffffffffffffffffffff166c01000000000000000000000000028152601401828152602001925050506040518091039020905060e060405190810160405280600060028111156104a757fe5b8152602001600073ffffffffffffffffffffffffffffffffffffffff16815260200160008152602001600081526020013373ffffffffffffffffffffffffffffffffffffffff16815260200160006040519080825280602002602001820160405280156105235781602001602082028038833980820191505090505b50815260200160006040519080825280602002602001820160405280156105595781602001602082028038833980820191505090505b50815250600080836000191660001916815260200190815260200160002060008201518160000160006101000a81548160ff0219169083600281111561059b57fe5b021790555060208201518160000160016101000a81548173ffffffffffffffffffffffffffffffffffffffff021916908373ffffffffffffffffffffffffffffffffffffffff160217905550604082015181600101556060820151816002015560808201518160030160006101000a81548173ffffffffffffffffffffffffffffffffffffffff021916908373ffffffffffffffffffffffffffffffffffffffff16021790555060a082015181600401908051906020019061065e929190610ee3565b5060c082015181600501908051906020019061067b929190610f6d565b5090505061068a813385610c5b565b7fefab50ac7abb03a135c0eb394a17595212bbe2ad2db2576a2b1d5fdeb092675981346040518083600019166000191681526020018281526020019250505060405180910390a18091505092915050565b50565b600080600080606060006106f0610fba565b600080896000191660001916815260200190815260200160002060e060405190810160405290816000820160009054906101000a900460ff16600281111561073457fe5b600281111561073f57fe5b81526020016000820160019054906101000a900473ffffffffffffffffffffffffffffffffffffffff1673ffffffffffffffffffffffffffffffffffffffff1673ffffffffffffffffffffffffffffffffffffffff16815260200160018201548152602001600282015481526020016003820160009054906101000a900473ffffffffffffffffffffffffffffffffffffffff1673ffffffffffffffffffffffffffffffffffffffff1673ffffffffffffffffffffffffffffffffffffffff1681526020016004820180548060200260200160405190810160405280929190818152602001828054801561088857602002820191906000526020600020905b8160009054906101000a900473ffffffffffffffffffffffffffffffffffffffff1673ffffffffffffffffffffffffffffffffffffffff168152602001906001019080831161083e575b50505050508152602001600582018054806020026020016040519081016040528092919081815260200182805480156108e057602002820191906000526020600020905b8154815260200190600101908083116108cc575b505050505081525050905080600001518160200151826040015183606001518460a0015185608001518191509650965096509650965096505091939550919395565b50565b3373ffffffffffffffffffffffffffffffffffffffff16600080846000191660001916815260200190815260200160002060030160009054906101000a900473ffffffffffffffffffffffffffffffffffffffff1673ffffffffffffffffffffffffffffffffffffffff1614151561099c57600080fd5b600060028111156109a957fe5b600080846000191660001916815260200190815260200160002060000160009054906101000a900460ff1660028111156109df57fe5b1415156109eb57600080fd5b8060008084600019166000191681526020019081526020016000206005019080519060200190610a1c92919061102f565b506001600080846000191660001916815260200190815260200160002060000160006101000a81548160ff02191690836002811115610a5757fe5b02179055505050565b60006002811115610a6d57fe5b600080846000191660001916815260200190815260200160002060000160009054906101000a900460ff166002811115610aa357fe5b141515610aaf57600080fd5b6008600080846000191660001916815260200190815260200160002060040180549050101515610ade57600080fd5b3373ffffffffffffffffffffffffffffffffffffffff166000808460001916600019168152602001908152602001600020600401600080856000191660001916815260200190815260200160002060060160003373ffffffffffffffffffffffffffffffffffffffff1673ffffffffffffffffffffffffffffffffffffffff16815260200190815260200160002060030154815481101515610b7c57fe5b9060005260206000200160009054906101000a900473ffffffffffffffffffffffffffffffffffffffff1673ffffffffffffffffffffffffffffffffffffffff16141515610bc957600080fd5b610bd4823383610c5b565b5050565b60006020528060005260406000206000915090508060000160009054906101000a900460ff16908060000160019054906101000a900473ffffffffffffffffffffffffffffffffffffffff16908060010154908060020154908060030160009054906101000a900473ffffffffffffffffffffffffffffffffffffffff16905085565b60c0604051908101604052803373ffffffffffffffffffffffffffffffffffffffff1681526020018281526020016105dc81526020016000808660001916600019168152602001908152602001600020600401805490508152602001600081526020016000604051908082528060200260200182016040528015610cee5781602001602082028038833980820191505090505b50815250600080856000191660001916815260200190815260200160002060060160003373ffffffffffffffffffffffffffffffffffffffff1673ffffffffffffffffffffffffffffffffffffffff16815260200190815260200160002060008201518160000160006101000a81548173ffffffffffffffffffffffffffffffffffffffff021916908373ffffffffffffffffffffffffffffffffffffffff1602179055506020820151816001019080519060200190610daf92919061107c565b5060408201518160020155606082015181600301556080820151816004015560a0820151816005019080519060200190610dea929190610f6d565b5090505060008084600019166000191681526020019081526020016000206004013390806001815401808255809150509060018203906000526020600020016000909192909190916101000a81548173ffffffffffffffffffffffffffffffffffffffff021916908373ffffffffffffffffffffffffffffffffffffffff16021790555050600160008373ffffffffffffffffffffffffffffffffffffffff1673ffffffffffffffffffffffffffffffffffffffff168152602001908152602001600020839080600181540180825580915050906001820390600052602060002001600090919290919091509060001916905550505050565b828054828255906000526020600020908101928215610f5c579160200282015b82811115610f5b5782518260006101000a81548173ffffffffffffffffffffffffffffffffffffffff021916908373ffffffffffffffffffffffffffffffffffffffff16021790555091602001919060010190610f03565b5b509050610f6991906110fc565b5090565b828054828255906000526020600020908101928215610fa9579160200282015b82811115610fa8578251825591602001919060010190610f8d565b5b509050610fb6919061113f565b5090565b60e06040519081016040528060006002811115610fd357fe5b8152602001600073ffffffffffffffffffffffffffffffffffffffff1681526020016000815260200160008152602001600073ffffffffffffffffffffffffffffffffffffffff16815260200160608152602001606081525090565b82805482825590600052602060002090810192821561106b579160200282015b8281111561106a57825182559160200191906001019061104f565b5b509050611078919061113f565b5090565b828054600181600116156101000203166002900490600052602060002090601f016020900481019282601f106110bd57805160ff19168380011785556110eb565b828001600101855582156110eb579182015b828111156110ea5782518255916020019190600101906110cf565b5b5090506110f8919061113f565b5090565b61113c91905b8082111561113857600081816101000a81549073ffffffffffffffffffffffffffffffffffffffff021916905550600101611102565b5090565b90565b61116191905b8082111561115d576000816000905550600101611145565b5090565b905600a165627a7a72305820a37fa23209e3bfb25db1309460b23fa826dc7ebba363f99886822b5fd5e1ff260029",
  "source": "pragma solidity ^0.4.18;\n\ncontract Monopoly {\n \n  enum GameState { Created, Playing, Finished }\n \n  struct Player{\n    address adress;\n    string name;\n    uint balance;\n    uint index;\n    uint boardIndex;\n    uint[] propertiesIndex;\n  }\n\n  struct Game{\n    GameState gameState;\n    address currentPlayer;\n    uint houseIndex;\n    uint hotelIndex;\n    address owner;\n    address[] playerIndex;\n    uint[] playingOrder;\n    mapping(address => Player) players;\n  }\n\n  uint constant maxPlayers = 8;\n  uint constant minPlayers = 2;\n  mapping(bytes32 => Game) public games;\n  mapping(address => bytes32[]) playerGames;\n  \n  event GameInitialized(bytes32 gameId, uint pot);\n  event PlayerJoined(bytes32 gameId, address player);\n  event BoardBuilt();\n  \n  constructor () {\n  }\n  \n  function createGame(uint8 numPlayers, string _name) public payable returns(bytes32) {\n    bytes32 gameId = sha3(msg.sender, block.number);\n    games[gameId] = Game(\n        GameState.Created,\n        0, // placeholder until game starts\n        0, // 0 houses used so far\n        0, // 0 hotels used so far\n        msg.sender,\n        new address[](0),\n        new uint[](0)\n    );\n    registerPlayer(gameId, msg.sender, _name);\n    \n    emit GameInitialized(gameId, msg.value);\n    return gameId;\n  }\n  \n  function getGame(bytes32 gameId) public returns(GameState, address, uint, uint, address[], address){\n    Game memory g = games[gameId];\n    \n    return (g.gameState, g.currentPlayer, g.houseIndex, g.hotelIndex, g.playerIndex, g.owner);\n  }\n  \n  function registerPlayer(bytes32 gameId, address _address, string _name) private{\n      games[gameId].players[msg.sender] = Player(\n        msg.sender,\n        _name,\n        1500,\n        games[gameId].playerIndex.length,\n        0,\n        new uint[](0)\n    );\n    games[gameId].playerIndex.push(msg.sender);\n    playerGames[_address].push(gameId);\n  }\n  \n  function joinGame(bytes32 gameId, string _name) public{\n      require(games[gameId].gameState == GameState.Created); \n      require(games[gameId].playerIndex.length < maxPlayers); //check if max players reached\n      require(games[gameId].playerIndex[games[gameId].players[msg.sender].index] == msg.sender); // check if player already joined\n      registerPlayer(gameId, msg.sender, _name);\n  }\n  \n  function startGame(bytes32 gameId, uint[] _playingOrder) public{\n      require(games[gameId].owner == msg.sender);\n      require(games[gameId].gameState == GameState.Created);\n      \n      //randomize order of players\n      \n      //randomize order of chance/community\n      \n      //pay players tokens\n      games[gameId].playingOrder = _playingOrder;\n      games[gameId].gameState = GameState.Playing;\n  }\n  \n  function getPlayingOrder(bytes32 gameId) public{\n      //pick random number to begin\n      //uint number = fill_in_the_blank()\n      //games[gameId].currentPlayer = number\n  }\n  \n  function takeTurn(bytes32 gameId) public{\n      //two random numbers 1-6;\n      //go to position on board\n      //take proper action\n  }\n  \n}",
  "sourcePath": "/Users/alexeimihalopoulos/Desktop/consensys-2018/monopoly/contracts/Monopoly.sol",
  "compiler": {
    "name": "solc",
    "version": "0.4.24+commit.e67f0147.Emscripten.clang"
  },
  "schemaVersion": "2.0.1",
  "updatedAt": "2018-07-28T01:24:45.368Z"
}