{
  "contractName": "Monopoly",
  "abi": [
    {
      "constant": true,
      "inputs": [],
      "name": "totalSupply",
      "outputs": [
        {
          "name": "",
          "type": "uint256"
        }
      ],
      "payable": false,
      "stateMutability": "view",
      "type": "function"
    },
    {
      "constant": true,
      "inputs": [
        {
          "name": "",
          "type": "bytes32"
        }
      ],
      "name": "games",
      "outputs": [
        {
          "name": "gameState",
          "type": "uint8"
        },
        {
          "name": "name",
          "type": "string"
        },
        {
          "name": "currentPlayer",
          "type": "uint256"
        },
        {
          "name": "houseIndex",
          "type": "uint256"
        },
        {
          "name": "hotelIndex",
          "type": "uint256"
        },
        {
          "name": "owner",
          "type": "address"
        },
        {
          "name": "gameId",
          "type": "bytes32"
        }
      ],
      "payable": false,
      "stateMutability": "view",
      "type": "function"
    },
    {
      "inputs": [],
      "payable": false,
      "stateMutability": "nonpayable",
      "type": "constructor"
    },
    {
      "anonymous": false,
      "inputs": [
        {
          "indexed": false,
          "name": "gameId",
          "type": "bytes32"
        },
        {
          "indexed": false,
          "name": "pot",
          "type": "uint256"
        }
      ],
      "name": "GameInitialized",
      "type": "event"
    },
    {
      "anonymous": false,
      "inputs": [
        {
          "indexed": false,
          "name": "gameId",
          "type": "bytes32"
        },
        {
          "indexed": false,
          "name": "player",
          "type": "address"
        }
      ],
      "name": "PlayerJoined",
      "type": "event"
    },
    {
      "anonymous": false,
      "inputs": [
        {
          "indexed": false,
          "name": "gameId",
          "type": "bytes32"
        }
      ],
      "name": "GameStarted",
      "type": "event"
    },
    {
      "constant": false,
      "inputs": [
        {
          "name": "numPlayers",
          "type": "uint8"
        },
        {
          "name": "randomNumber",
          "type": "uint8"
        },
        {
          "name": "_name",
          "type": "string"
        }
      ],
      "name": "createGame",
      "outputs": [
        {
          "name": "",
          "type": "bytes32"
        }
      ],
      "payable": true,
      "stateMutability": "payable",
      "type": "function"
    },
    {
      "constant": true,
      "inputs": [
        {
          "name": "gameId",
          "type": "bytes32"
        }
      ],
      "name": "getPlayers",
      "outputs": [
        {
          "name": "",
          "type": "address[]"
        }
      ],
      "payable": false,
      "stateMutability": "view",
      "type": "function"
    },
    {
      "constant": false,
      "inputs": [
        {
          "name": "num",
          "type": "uint256"
        },
        {
          "name": "gameId",
          "type": "bytes32"
        }
      ],
      "name": "takeTurn",
      "outputs": [],
      "payable": false,
      "stateMutability": "nonpayable",
      "type": "function"
    },
    {
      "constant": true,
      "inputs": [
        {
          "name": "_address",
          "type": "address"
        }
      ],
      "name": "getPlayerGames",
      "outputs": [
        {
          "name": "",
          "type": "bytes32[]"
        }
      ],
      "payable": false,
      "stateMutability": "view",
      "type": "function"
    },
    {
      "constant": true,
      "inputs": [
        {
          "name": "gameId",
          "type": "bytes32"
        }
      ],
      "name": "getGame",
      "outputs": [
        {
          "name": "",
          "type": "uint8"
        },
        {
          "name": "",
          "type": "string"
        },
        {
          "name": "",
          "type": "uint256"
        },
        {
          "name": "",
          "type": "uint256"
        },
        {
          "name": "",
          "type": "uint256"
        },
        {
          "name": "",
          "type": "address"
        },
        {
          "name": "",
          "type": "bytes32"
        },
        {
          "name": "",
          "type": "address[]"
        }
      ],
      "payable": false,
      "stateMutability": "view",
      "type": "function"
    },
    {
      "constant": true,
      "inputs": [
        {
          "name": "gameId",
          "type": "bytes32"
        },
        {
          "name": "playerId",
          "type": "address"
        }
      ],
      "name": "getPlayer",
      "outputs": [
        {
          "name": "",
          "type": "string"
        },
        {
          "name": "",
          "type": "uint256"
        },
        {
          "name": "",
          "type": "uint256"
        },
        {
          "name": "",
          "type": "uint256"
        }
      ],
      "payable": false,
      "stateMutability": "view",
      "type": "function"
    },
    {
      "constant": false,
      "inputs": [
        {
          "name": "gameId",
          "type": "bytes32"
        },
        {
          "name": "_name",
          "type": "string"
        }
      ],
      "name": "joinGame",
      "outputs": [],
      "payable": true,
      "stateMutability": "payable",
      "type": "function"
    },
    {
      "constant": false,
      "inputs": [
        {
          "name": "gameId",
          "type": "bytes32"
        }
      ],
      "name": "startGame",
      "outputs": [],
      "payable": false,
      "stateMutability": "nonpayable",
      "type": "function"
    }
  ],
  "bytecode": "0x608060405234801561001057600080fd5b50611783806100206000396000f3006080604052600436106100a4576000357c0100000000000000000000000000000000000000000000000000000000900463ffffffff1680630824f78a146100a9578063129daf841461013b57806318160ddd146101d35780634400336f146101fe5780634c92fb12146102dd57806373931bbf1461030e578063af1e19d91461046c578063de06cdeb146104f2578063e6378d3a1461052d578063f579f88214610597575b600080fd5b61011d600480360381019080803560ff169060200190929190803560ff169060200190929190803590602001908201803590602001908080601f01602080910402602001604051908101604052809392919081815260200183838082843782019150505050505091929192905050506106ad565b60405180826000191660001916815260200191505060405180910390f35b34801561014757600080fd5b5061017c600480360381019080803573ffffffffffffffffffffffffffffffffffffffff1690602001909291905050506108f4565b6040518080602001828103825283818151815260200191508051906020019060200280838360005b838110156101bf5780820151818401526020810190506101a4565b505050509050019250505060405180910390f35b3480156101df57600080fd5b506101e86109d8565b6040518082815260200191505060405180910390f35b34801561020a57600080fd5b5061024d6004803603810190808035600019169060200190929190803573ffffffffffffffffffffffffffffffffffffffff1690602001909291905050506109de565b6040518080602001858152602001848152602001838152602001828103825286818151815260200191508051906020019080838360005b8381101561029f578082015181840152602081019050610284565b50505050905090810190601f1680156102cc5780820380516001836020036101000a031916815260200191505b509550505050505060405180910390f35b3480156102e957600080fd5b5061030c6004803603810190808035600019169060200190929190505050610b95565b005b34801561031a57600080fd5b5061033d6004803603810190808035600019169060200190929190505050610cdf565b6040518089600281111561034d57fe5b60ff168152602001806020018881526020018781526020018681526020018573ffffffffffffffffffffffffffffffffffffffff1673ffffffffffffffffffffffffffffffffffffffff16815260200184600019166000191681526020018060200183810383528a818151815260200191508051906020019080838360005b838110156103e75780820151818401526020810190506103cc565b50505050905090810190601f1680156104145780820380516001836020036101000a031916815260200191505b50838103825284818151815260200191508051906020019060200280838360005b83811015610450578082015181840152602081019050610435565b505050509050019a505050505050505050505060405180910390f35b34801561047857600080fd5b5061049b6004803603810190808035600019169060200190929190505050610f4c565b6040518080602001828103825283818151815260200191508051906020019060200280838360005b838110156104de5780820151818401526020810190506104c3565b505050509050019250505060405180910390f35b3480156104fe57600080fd5b5061052b600480360381019080803590602001909291908035600019169060200190929190505050611053565b005b6105956004803603810190808035600019169060200190929190803590602001908201803590602001908080601f01602080910402602001604051908101604052809392919081815260200183838082843782019150505050505091929192905050506110e3565b005b3480156105a357600080fd5b506105c66004803603810190808035600019169060200190929190505050611172565b604051808860028111156105d657fe5b60ff168152602001806020018781526020018681526020018581526020018473ffffffffffffffffffffffffffffffffffffffff1673ffffffffffffffffffffffffffffffffffffffff1681526020018360001916600019168152602001828103825288818151815260200191508051906020019080838360005b8381101561066c578082015181840152602081019050610651565b50505050905090810190601f1680156106995780820380516001836020036101000a031916815260200191505b509850505050505050505060405180910390f35b6000803343604051808373ffffffffffffffffffffffffffffffffffffffff1673ffffffffffffffffffffffffffffffffffffffff166c010000000000000000000000000281526014018281526020019250505060405180910390209050610100604051908101604052806000600281111561072557fe5b81526020018481526020018560ff16815260200160008152602001600081526020013373ffffffffffffffffffffffffffffffffffffffff16815260200182600019168152602001600060405190808252806020026020018201604052801561079d5781602001602082028038833980820191505090505b5081525060026000836000191660001916815260200190815260200160002060008201518160000160006101000a81548160ff021916908360028111156107e057fe5b02179055506020820151816001019080519060200190610801929190611535565b5060408201518160020155606082015181600301556080820151816004015560a08201518160050160006101000a81548173ffffffffffffffffffffffffffffffffffffffff021916908373ffffffffffffffffffffffffffffffffffffffff16021790555060c0820151816006019060001916905560e08201518160070190805190602001906108939291906115b5565b509050506108a2813385611279565b7fefab50ac7abb03a135c0eb394a17595212bbe2ad2db2576a2b1d5fdeb092675981346040518083600019166000191681526020018281526020019250505060405180910390a1809150509392505050565b6060600060606000600360008673ffffffffffffffffffffffffffffffffffffffff1673ffffffffffffffffffffffffffffffffffffffff168152602001908152602001600020925082805490506040519080825280602002602001820160405280156109705781602001602082028038833980820191505090505b509150600090505b81518110156109cd57828181548110151561098f57fe5b906000526020600020015482828151811015156109a857fe5b9060200190602002019060001916908160001916815250508080600101915050610978565b819350505050919050565b60005481565b606060008060006109ed61163f565b60026000886000191660001916815260200190815260200160002060080160008773ffffffffffffffffffffffffffffffffffffffff1673ffffffffffffffffffffffffffffffffffffffff16815260200190815260200160002060a060405190810160405290816000820160009054906101000a900473ffffffffffffffffffffffffffffffffffffffff1673ffffffffffffffffffffffffffffffffffffffff1673ffffffffffffffffffffffffffffffffffffffff168152602001600182018054600181600116156101000203166002900480601f016020809104026020016040519081016040528092919081815260200182805460018160011615610100020316600290048015610b435780601f10610b1857610100808354040283529160200191610b43565b820191906000526020600020905b815481529060010190602001808311610b2657829003601f168201915b5050505050815260200160028201548152602001600382015481526020016004820154815250509050806020015181604001518260600151836080015183935094509450945094505092959194509250565b3373ffffffffffffffffffffffffffffffffffffffff1660026000836000191660001916815260200190815260200160002060050160009054906101000a900473ffffffffffffffffffffffffffffffffffffffff1673ffffffffffffffffffffffffffffffffffffffff16141515610c0d57600080fd5b60006002811115610c1a57fe5b60026000836000191660001916815260200190815260200160002060000160009054906101000a900460ff166002811115610c5157fe5b141515610c5d57600080fd5b600160026000836000191660001916815260200190815260200160002060000160006101000a81548160ff02191690836002811115610c9857fe5b02179055507fee5528ba4f234f658c6a97a7e3cba5532e7aad23bb249be4141b62e6a0158a7c8160405180826000191660001916815260200191505060405180910390a150565b6000606060008060008060006060610cf5611685565b600260008b6000191660001916815260200190815260200160002061010060405190810160405290816000820160009054906101000a900460ff166002811115610d3b57fe5b6002811115610d4657fe5b8152602001600182018054600181600116156101000203166002900480601f016020809104026020016040519081016040528092919081815260200182805460018160011615610100020316600290048015610de35780601f10610db857610100808354040283529160200191610de3565b820191906000526020600020905b815481529060010190602001808311610dc657829003601f168201915b505050505081526020016002820154815260200160038201548152602001600482015481526020016005820160009054906101000a900473ffffffffffffffffffffffffffffffffffffffff1673ffffffffffffffffffffffffffffffffffffffff1673ffffffffffffffffffffffffffffffffffffffff16815260200160068201546000191660001916815260200160078201805480602002602001604051908101604052809291908181526020018280548015610ef757602002820191906000526020600020905b8160009054906101000a900473ffffffffffffffffffffffffffffffffffffffff1673ffffffffffffffffffffffffffffffffffffffff1681526020019060010190808311610ead575b5050505050815250509050806000015181602001518260400151836060015184608001518560a001518660c001518760e001518696508090509850985098509850985098509850985050919395975091939597565b606060006060600060026000866000191660001916815260200190815260200160002060070192508280549050604051908082528060200260200182016040528015610fa75781602001602082028038833980820191505090505b509150600090505b8151811015611048578281815481101515610fc657fe5b9060005260206000200160009054906101000a900473ffffffffffffffffffffffffffffffffffffffff168282815181101515610fff57fe5b9060200190602002019073ffffffffffffffffffffffffffffffffffffffff16908173ffffffffffffffffffffffffffffffffffffffff16815250508080600101915050610faf565b819350505050919050565b600160026000836000191660001916815260200190815260200160002060020160008282540192505081905550600260008260001916600019168152602001908152602001600020600701600260008360001916600019168152602001908152602001600020600201548154811015156110c957fe5b9060005260206000200160009054906101000a9050505050565b600060028111156110f057fe5b60026000846000191660001916815260200190815260200160002060000160009054906101000a900460ff16600281111561112757fe5b14151561113357600080fd5b60086002600084600019166000191681526020019081526020016000206007018054905010151561116357600080fd5b61116e823383611279565b5050565b60026020528060005260406000206000915090508060000160009054906101000a900460ff1690806001018054600181600116156101000203166002900480601f0160208091040260200160405190810160405280929190818152602001828054600181600116156101000203166002900480156112315780601f1061120657610100808354040283529160200191611231565b820191906000526020600020905b81548152906001019060200180831161121457829003601f168201915b5050505050908060020154908060030154908060040154908060050160009054906101000a900473ffffffffffffffffffffffffffffffffffffffff16908060060154905087565b6105dc60008082825401925050819055506002600084600019166000191681526020019081526020016000206007013390806001815401808255809150509060018203906000526020600020016000909192909190916101000a81548173ffffffffffffffffffffffffffffffffffffffff021916908373ffffffffffffffffffffffffffffffffffffffff16021790555050600360008373ffffffffffffffffffffffffffffffffffffffff1673ffffffffffffffffffffffffffffffffffffffff16815260200190815260200160002083908060018154018082558091505090600182039060005260206000200160009091929091909150906000191690555060a0604051908101604052803373ffffffffffffffffffffffffffffffffffffffff1681526020018281526020016105dc8152602001600260008660001916600019168152602001908152602001600020600701805490508152602001600081525060026000856000191660001916815260200190815260200160002060080160003373ffffffffffffffffffffffffffffffffffffffff1673ffffffffffffffffffffffffffffffffffffffff16815260200190815260200160002060008201518160000160006101000a81548173ffffffffffffffffffffffffffffffffffffffff021916908373ffffffffffffffffffffffffffffffffffffffff160217905550602082015181600101908051906020019061149b929190611535565b506040820151816002015560608201518160030155608082015181600401559050507fdd5a0e5e0c7946c099f2ed766c0b633dd2eb1e1e10743bab89f871e8038b080b83836040518083600019166000191681526020018273ffffffffffffffffffffffffffffffffffffffff1673ffffffffffffffffffffffffffffffffffffffff1681526020019250505060405180910390a1505050565b828054600181600116156101000203166002900490600052602060002090601f016020900481019282601f1061157657805160ff19168380011785556115a4565b828001600101855582156115a4579182015b828111156115a3578251825591602001919060010190611588565b5b5090506115b191906116ef565b5090565b82805482825590600052602060002090810192821561162e579160200282015b8281111561162d5782518260006101000a81548173ffffffffffffffffffffffffffffffffffffffff021916908373ffffffffffffffffffffffffffffffffffffffff160217905550916020019190600101906115d5565b5b50905061163b9190611714565b5090565b60a060405190810160405280600073ffffffffffffffffffffffffffffffffffffffff168152602001606081526020016000815260200160008152602001600081525090565b610100604051908101604052806000600281111561169f57fe5b815260200160608152602001600081526020016000815260200160008152602001600073ffffffffffffffffffffffffffffffffffffffff16815260200160008019168152602001606081525090565b61171191905b8082111561170d5760008160009055506001016116f5565b5090565b90565b61175491905b8082111561175057600081816101000a81549073ffffffffffffffffffffffffffffffffffffffff02191690555060010161171a565b5090565b905600a165627a7a72305820d6bf26e1550ba8ad136e34fbcb3fab04216e9d442fc1422ccbadcbc305156a110029",
  "source": "pragma solidity ^0.4.18;\n\ncontract Monopoly {\n \n  enum GameState { Created, Playing, Finished }\n \n  struct Player{\n    address adress;\n    string name;\n    uint balance;\n    uint index;\n    uint boardIndex;\n  }\n\n  struct Game{\n    GameState gameState;\n    string name;\n    uint currentPlayer;\n    uint houseIndex;\n    uint hotelIndex;\n    address owner;\n    bytes32 gameId;\n    address[] playerIndex;\n    mapping(address => Player) players;\n  }\n\n  uint constant maxPlayers = 8;\n  uint constant minPlayers = 2;\n  \n  uint256 public totalSupply;\n  mapping(address => uint256) balanceOf;\n  \n  mapping(bytes32 => Game) public games;\n  mapping(address => bytes32[]) playerGames;\n  \n  event GameInitialized(bytes32 gameId, uint pot);\n  event PlayerJoined(bytes32 gameId, address player);\n  event GameStarted(bytes32 gameId);\n  \n  constructor () {\n  }\n  \n  function createGame(uint8 numPlayers, uint8 randomNumber, string _name) public payable returns(bytes32) {\n    bytes32 gameId = keccak256(msg.sender, block.number);\n    games[gameId] = Game(\n        GameState.Created,\n        _name,\n        randomNumber, \n        0, // 0 houses used so far\n        0, // 0 hotels used so far\n        msg.sender,\n        gameId,\n        new address[](0)\n    );\n    registerPlayer(gameId, msg.sender, _name);\n    \n    emit GameInitialized(gameId, msg.value);\n    return gameId;\n  }\n  \n  function getPlayers(bytes32 gameId) public view returns(address[]){\n    address[] players = games[gameId].playerIndex;\n    address[] memory p = new address[](players.length);\n    for(uint i=0; i < p.length; i++){\n        p[i] = players[i];\n    }\n    return p;\n  }\n  \n  function takeTurn(uint num, bytes32 gameId) public{\n    games[gameId].currentPlayer += 1;\n    games[gameId].playerIndex[games[gameId].currentPlayer];\n  }\n  \n  function getPlayerGames(address _address) public view returns(bytes32[]){\n      bytes32[] _playerGames = playerGames[_address];\n      bytes32[] memory v = new bytes32[](_playerGames.length);\n      for(uint i = 0; i < v.length; i++){\n        v[i] = _playerGames[i];\n      }\n      return v;\n  }\n\n  function getGame(bytes32 gameId) public view returns(GameState, string, uint, uint, uint, address, bytes32, address[]){\n    Game memory g = games[gameId];\n    \n    return (g.gameState, g.name, g.currentPlayer, g.houseIndex, g.hotelIndex, g.owner, g.gameId, g.playerIndex);\n  }\n  \n  function getPlayer(bytes32 gameId, address playerId) public view returns(string, uint, uint, uint){\n      Player memory p = games[gameId].players[playerId];\n      return (p.name, p.balance, p.index, p.boardIndex);\n  }\n  \n  function registerPlayer(bytes32 gameId, address _address, string _name) private{\n      totalSupply += 1500;\n      games[gameId].playerIndex.push(msg.sender);\n      playerGames[_address].push(gameId);\n      \n      games[gameId].players[msg.sender] = Player(\n        msg.sender,\n        _name,\n        1500,\n        games[gameId].playerIndex.length,\n        0\n    );\n    PlayerJoined(gameId, _address);\n  }\n  \n  function joinGame(bytes32 gameId, string _name) public payable{\n      require(games[gameId].gameState == GameState.Created); \n      require(games[gameId].playerIndex.length < maxPlayers); //check if max players reached\n      // check if player already joined\n      registerPlayer(gameId, msg.sender, _name);\n  }\n  \n  function startGame(bytes32 gameId) public{\n      require(games[gameId].owner == msg.sender);\n      require(games[gameId].gameState == GameState.Created);\n      \n      \n      //randomize order of chance/community\n      \n      games[gameId].gameState = GameState.Playing;\n      GameStarted(gameId);\n  }\n  \n  \n}\n\n",
  "sourcePath": "/Users/alexeimihalopoulos/Desktop/consensys-2018/monopoly/contracts/Monopoly.sol",
  "compiler": {
    "name": "solc",
    "version": "0.4.24+commit.e67f0147.Emscripten.clang"
  },
  "schemaVersion": "2.0.1",
  "updatedAt": "2018-08-03T19:40:37.124Z"
}